{
  "_format": "hh-sol-artifact-1",
  "contractName": "NFTMarketplace",
  "sourceName": "contracts/NFTMarketPlace.sol",
  "abi": [
    {
      "inputs": [],
      "stateMutability": "nonpayable",
      "type": "constructor"
    },
    {
      "inputs": [
        {
          "internalType": "address",
          "name": "sender",
          "type": "address"
        },
        {
          "internalType": "uint256",
          "name": "tokenId",
          "type": "uint256"
        },
        {
          "internalType": "address",
          "name": "owner",
          "type": "address"
        }
      ],
      "name": "ERC721IncorrectOwner",
      "type": "error"
    },
    {
      "inputs": [
        {
          "internalType": "address",
          "name": "operator",
          "type": "address"
        },
        {
          "internalType": "uint256",
          "name": "tokenId",
          "type": "uint256"
        }
      ],
      "name": "ERC721InsufficientApproval",
      "type": "error"
    },
    {
      "inputs": [
        {
          "internalType": "address",
          "name": "approver",
          "type": "address"
        }
      ],
      "name": "ERC721InvalidApprover",
      "type": "error"
    },
    {
      "inputs": [
        {
          "internalType": "address",
          "name": "operator",
          "type": "address"
        }
      ],
      "name": "ERC721InvalidOperator",
      "type": "error"
    },
    {
      "inputs": [
        {
          "internalType": "address",
          "name": "owner",
          "type": "address"
        }
      ],
      "name": "ERC721InvalidOwner",
      "type": "error"
    },
    {
      "inputs": [
        {
          "internalType": "address",
          "name": "receiver",
          "type": "address"
        }
      ],
      "name": "ERC721InvalidReceiver",
      "type": "error"
    },
    {
      "inputs": [
        {
          "internalType": "address",
          "name": "sender",
          "type": "address"
        }
      ],
      "name": "ERC721InvalidSender",
      "type": "error"
    },
    {
      "inputs": [
        {
          "internalType": "uint256",
          "name": "tokenId",
          "type": "uint256"
        }
      ],
      "name": "ERC721NonexistentToken",
      "type": "error"
    },
    {
      "inputs": [
        {
          "internalType": "address",
          "name": "owner",
          "type": "address"
        }
      ],
      "name": "OwnableInvalidOwner",
      "type": "error"
    },
    {
      "inputs": [
        {
          "internalType": "address",
          "name": "account",
          "type": "address"
        }
      ],
      "name": "OwnableUnauthorizedAccount",
      "type": "error"
    },
    {
      "anonymous": false,
      "inputs": [
        {
          "indexed": true,
          "internalType": "address",
          "name": "owner",
          "type": "address"
        },
        {
          "indexed": true,
          "internalType": "address",
          "name": "approved",
          "type": "address"
        },
        {
          "indexed": true,
          "internalType": "uint256",
          "name": "tokenId",
          "type": "uint256"
        }
      ],
      "name": "Approval",
      "type": "event"
    },
    {
      "anonymous": false,
      "inputs": [
        {
          "indexed": true,
          "internalType": "address",
          "name": "owner",
          "type": "address"
        },
        {
          "indexed": true,
          "internalType": "address",
          "name": "operator",
          "type": "address"
        },
        {
          "indexed": false,
          "internalType": "bool",
          "name": "approved",
          "type": "bool"
        }
      ],
      "name": "ApprovalForAll",
      "type": "event"
    },
    {
      "anonymous": false,
      "inputs": [
        {
          "indexed": false,
          "internalType": "uint256",
          "name": "_fromTokenId",
          "type": "uint256"
        },
        {
          "indexed": false,
          "internalType": "uint256",
          "name": "_toTokenId",
          "type": "uint256"
        }
      ],
      "name": "BatchMetadataUpdate",
      "type": "event"
    },
    {
      "anonymous": false,
      "inputs": [
        {
          "indexed": false,
          "internalType": "uint256",
          "name": "_tokenId",
          "type": "uint256"
        }
      ],
      "name": "MetadataUpdate",
      "type": "event"
    },
    {
      "anonymous": false,
      "inputs": [
        {
          "indexed": false,
          "internalType": "uint256",
          "name": "tokenId",
          "type": "uint256"
        }
      ],
      "name": "NFTListed",
      "type": "event"
    },
    {
      "anonymous": false,
      "inputs": [
        {
          "indexed": false,
          "internalType": "uint256",
          "name": "tokenId",
          "type": "uint256"
        }
      ],
      "name": "NFTMinted",
      "type": "event"
    },
    {
      "anonymous": false,
      "inputs": [
        {
          "indexed": false,
          "internalType": "uint256",
          "name": "tokenId",
          "type": "uint256"
        }
      ],
      "name": "NFTSold",
      "type": "event"
    },
    {
      "anonymous": false,
      "inputs": [
        {
          "indexed": true,
          "internalType": "address",
          "name": "previousOwner",
          "type": "address"
        },
        {
          "indexed": true,
          "internalType": "address",
          "name": "newOwner",
          "type": "address"
        }
      ],
      "name": "OwnershipTransferred",
      "type": "event"
    },
    {
      "anonymous": false,
      "inputs": [
        {
          "indexed": true,
          "internalType": "address",
          "name": "from",
          "type": "address"
        },
        {
          "indexed": true,
          "internalType": "address",
          "name": "to",
          "type": "address"
        },
        {
          "indexed": true,
          "internalType": "uint256",
          "name": "tokenId",
          "type": "uint256"
        }
      ],
      "name": "Transfer",
      "type": "event"
    },
    {
      "inputs": [
        {
          "internalType": "address",
          "name": "to",
          "type": "address"
        },
        {
          "internalType": "uint256",
          "name": "tokenId",
          "type": "uint256"
        }
      ],
      "name": "approve",
      "outputs": [],
      "stateMutability": "nonpayable",
      "type": "function"
    },
    {
      "inputs": [
        {
          "internalType": "address",
          "name": "owner",
          "type": "address"
        }
      ],
      "name": "balanceOf",
      "outputs": [
        {
          "internalType": "uint256",
          "name": "",
          "type": "uint256"
        }
      ],
      "stateMutability": "view",
      "type": "function"
    },
    {
      "inputs": [
        {
          "internalType": "uint256",
          "name": "_itemId",
          "type": "uint256"
        }
      ],
      "name": "buyNFT",
      "outputs": [],
      "stateMutability": "payable",
      "type": "function"
    },
    {
      "inputs": [],
      "name": "getAllListedNFTs",
      "outputs": [
        {
          "components": [
            {
              "internalType": "uint256",
              "name": "tokenId",
              "type": "uint256"
            },
            {
              "internalType": "string",
              "name": "name",
              "type": "string"
            },
            {
              "internalType": "string",
              "name": "url",
              "type": "string"
            },
            {
              "internalType": "string",
              "name": "description",
              "type": "string"
            },
            {
              "internalType": "address payable",
              "name": "owner",
              "type": "address"
            },
            {
              "internalType": "uint256",
              "name": "price",
              "type": "uint256"
            },
            {
              "internalType": "bool",
              "name": "isListed",
              "type": "bool"
            },
            {
              "internalType": "bool",
              "name": "isSold",
              "type": "bool"
            }
          ],
          "internalType": "struct NFTMarketplace.NFT[]",
          "name": "",
          "type": "tuple[]"
        }
      ],
      "stateMutability": "view",
      "type": "function"
    },
    {
      "inputs": [],
      "name": "getAllNFTS",
      "outputs": [
        {
          "components": [
            {
              "internalType": "uint256",
              "name": "tokenId",
              "type": "uint256"
            },
            {
              "internalType": "string",
              "name": "name",
              "type": "string"
            },
            {
              "internalType": "string",
              "name": "url",
              "type": "string"
            },
            {
              "internalType": "string",
              "name": "description",
              "type": "string"
            },
            {
              "internalType": "address payable",
              "name": "owner",
              "type": "address"
            },
            {
              "internalType": "uint256",
              "name": "price",
              "type": "uint256"
            },
            {
              "internalType": "bool",
              "name": "isListed",
              "type": "bool"
            },
            {
              "internalType": "bool",
              "name": "isSold",
              "type": "bool"
            }
          ],
          "internalType": "struct NFTMarketplace.NFT[]",
          "name": "",
          "type": "tuple[]"
        }
      ],
      "stateMutability": "view",
      "type": "function"
    },
    {
      "inputs": [],
      "name": "getAllSoldNFTs",
      "outputs": [
        {
          "components": [
            {
              "internalType": "uint256",
              "name": "tokenId",
              "type": "uint256"
            },
            {
              "internalType": "string",
              "name": "name",
              "type": "string"
            },
            {
              "internalType": "string",
              "name": "url",
              "type": "string"
            },
            {
              "internalType": "string",
              "name": "description",
              "type": "string"
            },
            {
              "internalType": "address payable",
              "name": "owner",
              "type": "address"
            },
            {
              "internalType": "uint256",
              "name": "price",
              "type": "uint256"
            },
            {
              "internalType": "bool",
              "name": "isListed",
              "type": "bool"
            },
            {
              "internalType": "bool",
              "name": "isSold",
              "type": "bool"
            }
          ],
          "internalType": "struct NFTMarketplace.NFT[]",
          "name": "",
          "type": "tuple[]"
        }
      ],
      "stateMutability": "view",
      "type": "function"
    },
    {
      "inputs": [
        {
          "internalType": "uint256",
          "name": "tokenId",
          "type": "uint256"
        }
      ],
      "name": "getApproved",
      "outputs": [
        {
          "internalType": "address",
          "name": "",
          "type": "address"
        }
      ],
      "stateMutability": "view",
      "type": "function"
    },
    {
      "inputs": [
        {
          "internalType": "address",
          "name": "owner",
          "type": "address"
        },
        {
          "internalType": "address",
          "name": "operator",
          "type": "address"
        }
      ],
      "name": "isApprovedForAll",
      "outputs": [
        {
          "internalType": "bool",
          "name": "",
          "type": "bool"
        }
      ],
      "stateMutability": "view",
      "type": "function"
    },
    {
      "inputs": [
        {
          "internalType": "uint256",
          "name": "_itemId",
          "type": "uint256"
        },
        {
          "internalType": "uint256",
          "name": "_price",
          "type": "uint256"
        }
      ],
      "name": "listNFT",
      "outputs": [],
      "stateMutability": "payable",
      "type": "function"
    },
    {
      "inputs": [
        {
          "internalType": "string",
          "name": "_name",
          "type": "string"
        },
        {
          "internalType": "string",
          "name": "_tokenURI",
          "type": "string"
        },
        {
          "internalType": "string",
          "name": "_description",
          "type": "string"
        }
      ],
      "name": "mintNFT",
      "outputs": [
        {
          "internalType": "uint256",
          "name": "",
          "type": "uint256"
        }
      ],
      "stateMutability": "nonpayable",
      "type": "function"
    },
    {
      "inputs": [],
      "name": "name",
      "outputs": [
        {
          "internalType": "string",
          "name": "",
          "type": "string"
        }
      ],
      "stateMutability": "view",
      "type": "function"
    },
    {
      "inputs": [
        {
          "internalType": "uint256",
          "name": "",
          "type": "uint256"
        }
      ],
      "name": "nfts",
      "outputs": [
        {
          "internalType": "uint256",
          "name": "tokenId",
          "type": "uint256"
        },
        {
          "internalType": "string",
          "name": "name",
          "type": "string"
        },
        {
          "internalType": "string",
          "name": "url",
          "type": "string"
        },
        {
          "internalType": "string",
          "name": "description",
          "type": "string"
        },
        {
          "internalType": "address payable",
          "name": "owner",
          "type": "address"
        },
        {
          "internalType": "uint256",
          "name": "price",
          "type": "uint256"
        },
        {
          "internalType": "bool",
          "name": "isListed",
          "type": "bool"
        },
        {
          "internalType": "bool",
          "name": "isSold",
          "type": "bool"
        }
      ],
      "stateMutability": "view",
      "type": "function"
    },
    {
      "inputs": [],
      "name": "owner",
      "outputs": [
        {
          "internalType": "address",
          "name": "",
          "type": "address"
        }
      ],
      "stateMutability": "view",
      "type": "function"
    },
    {
      "inputs": [
        {
          "internalType": "uint256",
          "name": "tokenId",
          "type": "uint256"
        }
      ],
      "name": "ownerOf",
      "outputs": [
        {
          "internalType": "address",
          "name": "",
          "type": "address"
        }
      ],
      "stateMutability": "view",
      "type": "function"
    },
    {
      "inputs": [],
      "name": "renounceOwnership",
      "outputs": [],
      "stateMutability": "nonpayable",
      "type": "function"
    },
    {
      "inputs": [
        {
          "internalType": "address",
          "name": "from",
          "type": "address"
        },
        {
          "internalType": "address",
          "name": "to",
          "type": "address"
        },
        {
          "internalType": "uint256",
          "name": "tokenId",
          "type": "uint256"
        }
      ],
      "name": "safeTransferFrom",
      "outputs": [],
      "stateMutability": "nonpayable",
      "type": "function"
    },
    {
      "inputs": [
        {
          "internalType": "address",
          "name": "from",
          "type": "address"
        },
        {
          "internalType": "address",
          "name": "to",
          "type": "address"
        },
        {
          "internalType": "uint256",
          "name": "tokenId",
          "type": "uint256"
        },
        {
          "internalType": "bytes",
          "name": "data",
          "type": "bytes"
        }
      ],
      "name": "safeTransferFrom",
      "outputs": [],
      "stateMutability": "nonpayable",
      "type": "function"
    },
    {
      "inputs": [
        {
          "internalType": "address",
          "name": "operator",
          "type": "address"
        },
        {
          "internalType": "bool",
          "name": "approved",
          "type": "bool"
        }
      ],
      "name": "setApprovalForAll",
      "outputs": [],
      "stateMutability": "nonpayable",
      "type": "function"
    },
    {
      "inputs": [
        {
          "internalType": "bytes4",
          "name": "interfaceId",
          "type": "bytes4"
        }
      ],
      "name": "supportsInterface",
      "outputs": [
        {
          "internalType": "bool",
          "name": "",
          "type": "bool"
        }
      ],
      "stateMutability": "view",
      "type": "function"
    },
    {
      "inputs": [],
      "name": "symbol",
      "outputs": [
        {
          "internalType": "string",
          "name": "",
          "type": "string"
        }
      ],
      "stateMutability": "view",
      "type": "function"
    },
    {
      "inputs": [
        {
          "internalType": "uint256",
          "name": "tokenId",
          "type": "uint256"
        }
      ],
      "name": "tokenURI",
      "outputs": [
        {
          "internalType": "string",
          "name": "",
          "type": "string"
        }
      ],
      "stateMutability": "view",
      "type": "function"
    },
    {
      "inputs": [
        {
          "internalType": "address",
          "name": "from",
          "type": "address"
        },
        {
          "internalType": "address",
          "name": "to",
          "type": "address"
        },
        {
          "internalType": "uint256",
          "name": "tokenId",
          "type": "uint256"
        }
      ],
      "name": "transferFrom",
      "outputs": [],
      "stateMutability": "nonpayable",
      "type": "function"
    },
    {
      "inputs": [
        {
          "internalType": "address",
          "name": "newOwner",
          "type": "address"
        }
      ],
      "name": "transferOwnership",
      "outputs": [],
      "stateMutability": "nonpayable",
      "type": "function"
    },
    {
      "inputs": [],
      "name": "withdraw",
      "outputs": [],
      "stateMutability": "payable",
      "type": "function"
    }
  ],
  "bytecode": "0x6080604052651fd512913000600855600060095534801561001f57600080fd5b50336040518060400160405280600581526020017f53435542490000000000000000000000000000000000000000000000000000008152506040518060400160405280600381526020017f5343420000000000000000000000000000000000000000000000000000000000815250816000908161009c919061044c565b5080600190816100ac919061044c565b505050600073ffffffffffffffffffffffffffffffffffffffff168173ffffffffffffffffffffffffffffffffffffffff16036101215760006040517f1e4fbdf7000000000000000000000000000000000000000000000000000000008152600401610118919061055f565b60405180910390fd5b6101308161013660201b60201c565b5061057a565b6000600760009054906101000a900473ffffffffffffffffffffffffffffffffffffffff16905081600760006101000a81548173ffffffffffffffffffffffffffffffffffffffff021916908373ffffffffffffffffffffffffffffffffffffffff1602179055508173ffffffffffffffffffffffffffffffffffffffff168173ffffffffffffffffffffffffffffffffffffffff167f8be0079c531659141344cd1fd0a4f28419497f9722a3daafe3b4186f6b6457e060405160405180910390a35050565b600081519050919050565b7f4e487b7100000000000000000000000000000000000000000000000000000000600052604160045260246000fd5b7f4e487b7100000000000000000000000000000000000000000000000000000000600052602260045260246000fd5b6000600282049050600182168061027d57607f821691505b6020821081036102905761028f610236565b5b50919050565b60008190508160005260206000209050919050565b60006020601f8301049050919050565b600082821b905092915050565b6000600883026102f87fffffffffffffffffffffffffffffffffffffffffffffffffffffffffffffffff826102bb565b61030286836102bb565b95508019841693508086168417925050509392505050565b6000819050919050565b6000819050919050565b600061034961034461033f8461031a565b610324565b61031a565b9050919050565b6000819050919050565b6103638361032e565b61037761036f82610350565b8484546102c8565b825550505050565b600090565b61038c61037f565b61039781848461035a565b505050565b5b818110156103bb576103b0600082610384565b60018101905061039d565b5050565b601f821115610400576103d181610296565b6103da846102ab565b810160208510156103e9578190505b6103fd6103f5856102ab565b83018261039c565b50505b505050565b600082821c905092915050565b600061042360001984600802610405565b1980831691505092915050565b600061043c8383610412565b9150826002028217905092915050565b610455826101fc565b67ffffffffffffffff81111561046e5761046d610207565b5b6104788254610265565b6104838282856103bf565b600060209050601f8311600181146104b657600084156104a4578287015190505b6104ae8582610430565b865550610516565b601f1984166104c486610296565b60005b828110156104ec578489015182556001820191506020850194506020810190506104c7565b868310156105095784890151610505601f891682610412565b8355505b6001600288020188555050505b505050505050565b600073ffffffffffffffffffffffffffffffffffffffff82169050919050565b60006105498261051e565b9050919050565b6105598161053e565b82525050565b60006020820190506105746000830184610550565b92915050565b61446d806105896000396000f3fe60806040526004361061014b5760003560e01c806370a08231116100b6578063a22cb4651161006f578063a22cb46514610470578063b88d4fde14610499578063c87b56dd146104c2578063cf4bb2eb146104ff578063e985e9c51461052a578063f2fde38b146105675761014b565b806370a082311461037f578063715018a6146103bc57806376d672b1146103d35780638da5cb5b146103fe57806394383f141461042957806395d89b41146104455761014b565b8063265aa62111610108578063265aa621146102845780633ccfd60b146102c857806342842e0e146102d25780634b58ffaa146102fb57806351ed8288146103265780636352211e146103425761014b565b806301ffc9a71461015057806306fdde031461018d578063081812fc146101b8578063095ea7b3146101f55780630c3b7b721461021e57806323b872dd1461025b575b600080fd5b34801561015c57600080fd5b5061017760048036038101906101729190613224565b610590565b604051610184919061326c565b60405180910390f35b34801561019957600080fd5b506101a26105f1565b6040516101af9190613317565b60405180910390f35b3480156101c457600080fd5b506101df60048036038101906101da919061336f565b610683565b6040516101ec91906133dd565b60405180910390f35b34801561020157600080fd5b5061021c60048036038101906102179190613424565b61069f565b005b34801561022a57600080fd5b5061024560048036038101906102409190613599565b6106b5565b604051610252919061364f565b60405180910390f35b34801561026757600080fd5b50610282600480360381019061027d919061366a565b61087a565b005b34801561029057600080fd5b506102ab60048036038101906102a6919061336f565b61097c565b6040516102bf9897969594939291906136de565b60405180910390f35b6102d0610b96565b005b3480156102de57600080fd5b506102f960048036038101906102f4919061366a565b610bee565b005b34801561030757600080fd5b50610310610c0e565b60405161031d9190613968565b60405180910390f35b610340600480360381019061033b919061336f565b610fbe565b005b34801561034e57600080fd5b506103696004803603810190610364919061336f565b611259565b60405161037691906133dd565b60405180910390f35b34801561038b57600080fd5b506103a660048036038101906103a1919061398a565b61126b565b6040516103b3919061364f565b60405180910390f35b3480156103c857600080fd5b506103d1611325565b005b3480156103df57600080fd5b506103e8611339565b6040516103f59190613968565b60405180910390f35b34801561040a57600080fd5b506104136116e9565b60405161042091906133dd565b60405180910390f35b610443600480360381019061043e91906139b7565b611713565b005b34801561045157600080fd5b5061045a611957565b6040516104679190613317565b60405180910390f35b34801561047c57600080fd5b5061049760048036038101906104929190613a23565b6119e9565b005b3480156104a557600080fd5b506104c060048036038101906104bb9190613b04565b6119ff565b005b3480156104ce57600080fd5b506104e960048036038101906104e4919061336f565b611a24565b6040516104f69190613317565b60405180910390f35b34801561050b57600080fd5b50610514611b37565b6040516105219190613968565b60405180910390f35b34801561053657600080fd5b50610551600480360381019061054c9190613b87565b611e61565b60405161055e919061326c565b60405180910390f35b34801561057357600080fd5b5061058e6004803603810190610589919061398a565b611ef5565b005b6000634906490660e01b7bffffffffffffffffffffffffffffffffffffffffffffffffffffffff1916827bffffffffffffffffffffffffffffffffffffffffffffffffffffffff191614806105ea57506105e982611f7b565b5b9050919050565b60606000805461060090613bf6565b80601f016020809104026020016040519081016040528092919081815260200182805461062c90613bf6565b80156106795780601f1061064e57610100808354040283529160200191610679565b820191906000526020600020905b81548152906001019060200180831161065c57829003601f168201915b5050505050905090565b600061068e8261205d565b50610698826120e5565b9050919050565b6106b182826106ac612122565b61212a565b5050565b6000600960008154809291906106ca90613c56565b91905055506106db3360095461213c565b6106e76009548461215a565b60405180610100016040528060095481526020018581526020018481526020018381526020013373ffffffffffffffffffffffffffffffffffffffff1681526020016000815260200160001515815260200160001515815250600a600060095481526020019081526020016000206000820151816000015560208201518160010190816107749190613e4a565b50604082015181600201908161078a9190613e4a565b5060608201518160030190816107a09190613e4a565b5060808201518160040160006101000a81548173ffffffffffffffffffffffffffffffffffffffff021916908373ffffffffffffffffffffffffffffffffffffffff16021790555060a0820151816005015560c08201518160060160006101000a81548160ff02191690831515021790555060e08201518160060160016101000a81548160ff0219169083151502179055509050507fd9dc24857f317ed9abbbb42e920ede0104231eb1d3d70236a74887ffaf159868600954604051610866919061364f565b60405180910390a160095490509392505050565b600073ffffffffffffffffffffffffffffffffffffffff168273ffffffffffffffffffffffffffffffffffffffff16036108ec5760006040517f64a0ae920000000000000000000000000000000000000000000000000000000081526004016108e391906133dd565b60405180910390fd5b600061090083836108fb612122565b6121b6565b90508373ffffffffffffffffffffffffffffffffffffffff168173ffffffffffffffffffffffffffffffffffffffff1614610976578382826040517f64283d7b00000000000000000000000000000000000000000000000000000000815260040161096d93929190613f1c565b60405180910390fd5b50505050565b600a6020528060005260406000206000915090508060000154908060010180546109a590613bf6565b80601f01602080910402602001604051908101604052809291908181526020018280546109d190613bf6565b8015610a1e5780601f106109f357610100808354040283529160200191610a1e565b820191906000526020600020905b815481529060010190602001808311610a0157829003601f168201915b505050505090806002018054610a3390613bf6565b80601f0160208091040260200160405190810160405280929190818152602001828054610a5f90613bf6565b8015610aac5780601f10610a8157610100808354040283529160200191610aac565b820191906000526020600020905b815481529060010190602001808311610a8f57829003601f168201915b505050505090806003018054610ac190613bf6565b80601f0160208091040260200160405190810160405280929190818152602001828054610aed90613bf6565b8015610b3a5780601f10610b0f57610100808354040283529160200191610b3a565b820191906000526020600020905b815481529060010190602001808311610b1d57829003601f168201915b5050505050908060040160009054906101000a900473ffffffffffffffffffffffffffffffffffffffff16908060050154908060060160009054906101000a900460ff16908060060160019054906101000a900460ff16905088565b610b9e6123d0565b610ba66116e9565b73ffffffffffffffffffffffffffffffffffffffff166108fc479081150290604051600060405180830381858888f19350505050158015610beb573d6000803e3d6000fd5b50565b610c09838383604051806020016040528060008152506119ff565b505050565b6060600080600190505b6009548111610c6c57600a600082815260200190815260200160002060060160009054906101000a900460ff1615610c59578180610c5590613c56565b9250505b8080610c6490613c56565b915050610c18565b5060008167ffffffffffffffff811115610c8957610c8861346e565b5b604051908082528060200260200182016040528015610cc257816020015b610caf613159565b815260200190600190039081610ca75790505b509050600080600190505b6009548111610fb457600a600082815260200190815260200160002060060160009054906101000a900460ff1615610fa157600a60008281526020019081526020016000206040518061010001604052908160008201548152602001600182018054610d3890613bf6565b80601f0160208091040260200160405190810160405280929190818152602001828054610d6490613bf6565b8015610db15780601f10610d8657610100808354040283529160200191610db1565b820191906000526020600020905b815481529060010190602001808311610d9457829003601f168201915b50505050508152602001600282018054610dca90613bf6565b80601f0160208091040260200160405190810160405280929190818152602001828054610df690613bf6565b8015610e435780601f10610e1857610100808354040283529160200191610e43565b820191906000526020600020905b815481529060010190602001808311610e2657829003601f168201915b50505050508152602001600382018054610e5c90613bf6565b80601f0160208091040260200160405190810160405280929190818152602001828054610e8890613bf6565b8015610ed55780601f10610eaa57610100808354040283529160200191610ed5565b820191906000526020600020905b815481529060010190602001808311610eb857829003601f168201915b505050505081526020016004820160009054906101000a900473ffffffffffffffffffffffffffffffffffffffff1673ffffffffffffffffffffffffffffffffffffffff1673ffffffffffffffffffffffffffffffffffffffff168152602001600582015481526020016006820160009054906101000a900460ff161515151581526020016006820160019054906101000a900460ff161515151581525050838381518110610f8757610f86613f53565b5b60200260200101819052508180610f9d90613c56565b9250505b8080610fac90613c56565b915050610ccd565b5081935050505090565b600a600082815260200190815260200160002060060160019054906101000a900460ff1615611022576040517f08c379a000000000000000000000000000000000000000000000000000000000815260040161101990613fce565b60405180910390fd5b600a600082815260200190815260200160002060060160009054906101000a900460ff16611085576040517f08c379a000000000000000000000000000000000000000000000000000000000815260040161107c9061403a565b60405180910390fd5b600a6000828152602001908152602001600020600501543410156110de576040517f08c379a00000000000000000000000000000000000000000000000000000000081526004016110d5906140a6565b60405180910390fd5b6000600a600083815260200190815260200160002060040160009054906101000a900473ffffffffffffffffffffffffffffffffffffffff16905033600a600084815260200190815260200160002060040160006101000a81548173ffffffffffffffffffffffffffffffffffffffff021916908373ffffffffffffffffffffffffffffffffffffffff1602179055506000600a600084815260200190815260200160002060060160006101000a81548160ff0219169083151502179055506001600a600084815260200190815260200160002060060160016101000a81548160ff0219169083151502179055506111d7813384612457565b8073ffffffffffffffffffffffffffffffffffffffff166108fc349081150290604051600060405180830381858888f1935050505015801561121d573d6000803e3d6000fd5b507f99fd446919f411e1e2465d90963ce1ca74a380a81a2540bf3732adc28d36e0b58260405161124d919061364f565b60405180910390a15050565b60006112648261205d565b9050919050565b60008073ffffffffffffffffffffffffffffffffffffffff168273ffffffffffffffffffffffffffffffffffffffff16036112de5760006040517f89c62b640000000000000000000000000000000000000000000000000000000081526004016112d591906133dd565b60405180910390fd5b600360008373ffffffffffffffffffffffffffffffffffffffff1673ffffffffffffffffffffffffffffffffffffffff168152602001908152602001600020549050919050565b61132d6123d0565b61133760006125c4565b565b6060600080600190505b600954811161139757600a600082815260200190815260200160002060060160019054906101000a900460ff161561138457818061138090613c56565b9250505b808061138f90613c56565b915050611343565b5060008167ffffffffffffffff8111156113b4576113b361346e565b5b6040519080825280602002602001820160405280156113ed57816020015b6113da613159565b8152602001906001900390816113d25790505b509050600080600190505b60095481116116df57600a600082815260200190815260200160002060060160019054906101000a900460ff16156116cc57600a6000828152602001908152602001600020604051806101000160405290816000820154815260200160018201805461146390613bf6565b80601f016020809104026020016040519081016040528092919081815260200182805461148f90613bf6565b80156114dc5780601f106114b1576101008083540402835291602001916114dc565b820191906000526020600020905b8154815290600101906020018083116114bf57829003601f168201915b505050505081526020016002820180546114f590613bf6565b80601f016020809104026020016040519081016040528092919081815260200182805461152190613bf6565b801561156e5780601f106115435761010080835404028352916020019161156e565b820191906000526020600020905b81548152906001019060200180831161155157829003601f168201915b5050505050815260200160038201805461158790613bf6565b80601f01602080910402602001604051908101604052809291908181526020018280546115b390613bf6565b80156116005780601f106115d557610100808354040283529160200191611600565b820191906000526020600020905b8154815290600101906020018083116115e357829003601f168201915b505050505081526020016004820160009054906101000a900473ffffffffffffffffffffffffffffffffffffffff1673ffffffffffffffffffffffffffffffffffffffff1673ffffffffffffffffffffffffffffffffffffffff168152602001600582015481526020016006820160009054906101000a900460ff161515151581526020016006820160019054906101000a900460ff1615151515815250508383815181106116b2576116b1613f53565b5b602002602001018190525081806116c890613c56565b9250505b80806116d790613c56565b9150506113f8565b5081935050505090565b6000600760009054906101000a900473ffffffffffffffffffffffffffffffffffffffff16905090565b600a600083815260200190815260200160002060060160009054906101000a900460ff1615611777576040517f08c379a000000000000000000000000000000000000000000000000000000000815260040161176e90614112565b60405180910390fd5b600a600083815260200190815260200160002060040160009054906101000a900473ffffffffffffffffffffffffffffffffffffffff1673ffffffffffffffffffffffffffffffffffffffff163373ffffffffffffffffffffffffffffffffffffffff161461181b576040517f08c379a00000000000000000000000000000000000000000000000000000000081526004016118129061417e565b60405180910390fd5b6000811161185e576040517f08c379a0000000000000000000000000000000000000000000000000000000008152600401611855906141ea565b60405180910390fd5b6008543410156118a3576040517f08c379a000000000000000000000000000000000000000000000000000000000815260040161189a9061427c565b60405180910390fd5b80600a6000848152602001908152602001600020600501819055506001600a600084815260200190815260200160002060060160006101000a81548160ff0219169083151502179055506000600a600084815260200190815260200160002060060160016101000a81548160ff0219169083151502179055507fdb1fd9bae40110b73b6592270632b19e60d204d52ee5cd72c60d076e6bdd342f8260405161194b919061364f565b60405180910390a15050565b60606001805461196690613bf6565b80601f016020809104026020016040519081016040528092919081815260200182805461199290613bf6565b80156119df5780601f106119b4576101008083540402835291602001916119df565b820191906000526020600020905b8154815290600101906020018083116119c257829003601f168201915b5050505050905090565b6119fb6119f4612122565b838361268a565b5050565b611a0a84848461087a565b611a1e611a15612122565b858585856127f9565b50505050565b6060611a2f8261205d565b506000600660008481526020019081526020016000208054611a5090613bf6565b80601f0160208091040260200160405190810160405280929190818152602001828054611a7c90613bf6565b8015611ac95780601f10611a9e57610100808354040283529160200191611ac9565b820191906000526020600020905b815481529060010190602001808311611aac57829003601f168201915b505050505090506000611ada6129aa565b90506000815103611aef578192505050611b32565b600082511115611b24578082604051602001611b0c9291906142d8565b60405160208183030381529060405292505050611b32565b611b2d846129c1565b925050505b919050565b6060600060095467ffffffffffffffff811115611b5757611b5661346e565b5b604051908082528060200260200182016040528015611b9057816020015b611b7d613159565b815260200190600190039081611b755790505b509050600080600190505b6009548111611e5857600a60008281526020019081526020016000206040518061010001604052908160008201548152602001600182018054611bdd90613bf6565b80601f0160208091040260200160405190810160405280929190818152602001828054611c0990613bf6565b8015611c565780601f10611c2b57610100808354040283529160200191611c56565b820191906000526020600020905b815481529060010190602001808311611c3957829003601f168201915b50505050508152602001600282018054611c6f90613bf6565b80601f0160208091040260200160405190810160405280929190818152602001828054611c9b90613bf6565b8015611ce85780601f10611cbd57610100808354040283529160200191611ce8565b820191906000526020600020905b815481529060010190602001808311611ccb57829003601f168201915b50505050508152602001600382018054611d0190613bf6565b80601f0160208091040260200160405190810160405280929190818152602001828054611d2d90613bf6565b8015611d7a5780601f10611d4f57610100808354040283529160200191611d7a565b820191906000526020600020905b815481529060010190602001808311611d5d57829003601f168201915b505050505081526020016004820160009054906101000a900473ffffffffffffffffffffffffffffffffffffffff1673ffffffffffffffffffffffffffffffffffffffff1673ffffffffffffffffffffffffffffffffffffffff168152602001600582015481526020016006820160009054906101000a900460ff161515151581526020016006820160019054906101000a900460ff161515151581525050838381518110611e2c57611e2b613f53565b5b60200260200101819052508180611e4290613c56565b9250508080611e5090613c56565b915050611b9b565b50819250505090565b6000600560008473ffffffffffffffffffffffffffffffffffffffff1673ffffffffffffffffffffffffffffffffffffffff16815260200190815260200160002060008373ffffffffffffffffffffffffffffffffffffffff1673ffffffffffffffffffffffffffffffffffffffff16815260200190815260200160002060009054906101000a900460ff16905092915050565b611efd6123d0565b600073ffffffffffffffffffffffffffffffffffffffff168173ffffffffffffffffffffffffffffffffffffffff1603611f6f5760006040517f1e4fbdf7000000000000000000000000000000000000000000000000000000008152600401611f6691906133dd565b60405180910390fd5b611f78816125c4565b50565b60007f80ac58cd000000000000000000000000000000000000000000000000000000007bffffffffffffffffffffffffffffffffffffffffffffffffffffffff1916827bffffffffffffffffffffffffffffffffffffffffffffffffffffffff1916148061204657507f5b5e139f000000000000000000000000000000000000000000000000000000007bffffffffffffffffffffffffffffffffffffffffffffffffffffffff1916827bffffffffffffffffffffffffffffffffffffffffffffffffffffffff1916145b80612056575061205582612a2a565b5b9050919050565b60008061206983612a94565b9050600073ffffffffffffffffffffffffffffffffffffffff168173ffffffffffffffffffffffffffffffffffffffff16036120dc57826040517f7e2732890000000000000000000000000000000000000000000000000000000081526004016120d3919061364f565b60405180910390fd5b80915050919050565b60006004600083815260200190815260200160002060009054906101000a900473ffffffffffffffffffffffffffffffffffffffff169050919050565b600033905090565b6121378383836001612ad1565b505050565b612156828260405180602001604052806000815250612c96565b5050565b8060066000848152602001908152602001600020908161217a9190613e4a565b507ff8e1a15aba9398e019f0b49df1a4fde98ee17ae345cb5f6b5e2c27f5033e8ce7826040516121aa919061364f565b60405180910390a15050565b6000806121c284612a94565b9050600073ffffffffffffffffffffffffffffffffffffffff168373ffffffffffffffffffffffffffffffffffffffff161461220457612203818486612cba565b5b600073ffffffffffffffffffffffffffffffffffffffff168173ffffffffffffffffffffffffffffffffffffffff161461229557612246600085600080612ad1565b6001600360008373ffffffffffffffffffffffffffffffffffffffff1673ffffffffffffffffffffffffffffffffffffffff168152602001908152602001600020600082825403925050819055505b600073ffffffffffffffffffffffffffffffffffffffff168573ffffffffffffffffffffffffffffffffffffffff1614612318576001600360008773ffffffffffffffffffffffffffffffffffffffff1673ffffffffffffffffffffffffffffffffffffffff168152602001908152602001600020600082825401925050819055505b846002600086815260200190815260200160002060006101000a81548173ffffffffffffffffffffffffffffffffffffffff021916908373ffffffffffffffffffffffffffffffffffffffff160217905550838573ffffffffffffffffffffffffffffffffffffffff168273ffffffffffffffffffffffffffffffffffffffff167fddf252ad1be2c89b69c2b068fc378daa952ba7f163c4a11628f55a4df523b3ef60405160405180910390a4809150509392505050565b6123d8612122565b73ffffffffffffffffffffffffffffffffffffffff166123f66116e9565b73ffffffffffffffffffffffffffffffffffffffff161461245557612419612122565b6040517f118cdaa700000000000000000000000000000000000000000000000000000000815260040161244c91906133dd565b60405180910390fd5b565b600073ffffffffffffffffffffffffffffffffffffffff168273ffffffffffffffffffffffffffffffffffffffff16036124c95760006040517f64a0ae920000000000000000000000000000000000000000000000000000000081526004016124c091906133dd565b60405180910390fd5b60006124d7838360006121b6565b9050600073ffffffffffffffffffffffffffffffffffffffff168173ffffffffffffffffffffffffffffffffffffffff160361254a57816040517f7e273289000000000000000000000000000000000000000000000000000000008152600401612541919061364f565b60405180910390fd5b8373ffffffffffffffffffffffffffffffffffffffff168173ffffffffffffffffffffffffffffffffffffffff16146125be578382826040517f64283d7b0000000000000000000000000000000000000000000000000000000081526004016125b593929190613f1c565b60405180910390fd5b50505050565b6000600760009054906101000a900473ffffffffffffffffffffffffffffffffffffffff16905081600760006101000a81548173ffffffffffffffffffffffffffffffffffffffff021916908373ffffffffffffffffffffffffffffffffffffffff1602179055508173ffffffffffffffffffffffffffffffffffffffff168173ffffffffffffffffffffffffffffffffffffffff167f8be0079c531659141344cd1fd0a4f28419497f9722a3daafe3b4186f6b6457e060405160405180910390a35050565b600073ffffffffffffffffffffffffffffffffffffffff168273ffffffffffffffffffffffffffffffffffffffff16036126fb57816040517f5b08ba180000000000000000000000000000000000000000000000000000000081526004016126f291906133dd565b60405180910390fd5b80600560008573ffffffffffffffffffffffffffffffffffffffff1673ffffffffffffffffffffffffffffffffffffffff16815260200190815260200160002060008473ffffffffffffffffffffffffffffffffffffffff1673ffffffffffffffffffffffffffffffffffffffff16815260200190815260200160002060006101000a81548160ff0219169083151502179055508173ffffffffffffffffffffffffffffffffffffffff168373ffffffffffffffffffffffffffffffffffffffff167f17307eab39ab6107e8899845ad3d59bd9653f200f220920489ca2b5937696c31836040516127ec919061326c565b60405180910390a3505050565b60008373ffffffffffffffffffffffffffffffffffffffff163b11156129a3578273ffffffffffffffffffffffffffffffffffffffff1663150b7a02868685856040518563ffffffff1660e01b81526004016128589493929190614351565b6020604051808303816000875af192505050801561289457506040513d601f19601f8201168201806040525081019061289191906143b2565b60015b612918573d80600081146128c4576040519150601f19603f3d011682016040523d82523d6000602084013e6128c9565b606091505b50600081510361291057836040517f64a0ae9200000000000000000000000000000000000000000000000000000000815260040161290791906133dd565b60405180910390fd5b805181602001fd5b63150b7a0260e01b7bffffffffffffffffffffffffffffffffffffffffffffffffffffffff1916817bffffffffffffffffffffffffffffffffffffffffffffffffffffffff1916146129a157836040517f64a0ae9200000000000000000000000000000000000000000000000000000000815260040161299891906133dd565b60405180910390fd5b505b5050505050565b606060405180602001604052806000815250905090565b60606129cc8261205d565b5060006129d76129aa565b905060008151116129f75760405180602001604052806000815250612a22565b80612a0184612d7e565b604051602001612a129291906142d8565b6040516020818303038152906040525b915050919050565b60007f01ffc9a7000000000000000000000000000000000000000000000000000000007bffffffffffffffffffffffffffffffffffffffffffffffffffffffff1916827bffffffffffffffffffffffffffffffffffffffffffffffffffffffff1916149050919050565b60006002600083815260200190815260200160002060009054906101000a900473ffffffffffffffffffffffffffffffffffffffff169050919050565b8080612b0a5750600073ffffffffffffffffffffffffffffffffffffffff168273ffffffffffffffffffffffffffffffffffffffff1614155b15612c3e576000612b1a8461205d565b9050600073ffffffffffffffffffffffffffffffffffffffff168373ffffffffffffffffffffffffffffffffffffffff1614158015612b8557508273ffffffffffffffffffffffffffffffffffffffff168173ffffffffffffffffffffffffffffffffffffffff1614155b8015612b985750612b968184611e61565b155b15612bda57826040517fa9fbf51f000000000000000000000000000000000000000000000000000000008152600401612bd191906133dd565b60405180910390fd5b8115612c3c57838573ffffffffffffffffffffffffffffffffffffffff168273ffffffffffffffffffffffffffffffffffffffff167f8c5be1e5ebec7d5bd14f71427d1e84f3dd0314c0f7b2291e5b200ac8c7c3b92560405160405180910390a45b505b836004600085815260200190815260200160002060006101000a81548173ffffffffffffffffffffffffffffffffffffffff021916908373ffffffffffffffffffffffffffffffffffffffff16021790555050505050565b612ca08383612e4c565b612cb5612cab612122565b60008585856127f9565b505050565b612cc5838383612f45565b612d7957600073ffffffffffffffffffffffffffffffffffffffff168373ffffffffffffffffffffffffffffffffffffffff1603612d3a57806040517f7e273289000000000000000000000000000000000000000000000000000000008152600401612d31919061364f565b60405180910390fd5b81816040517f177e802f000000000000000000000000000000000000000000000000000000008152600401612d709291906143df565b60405180910390fd5b505050565b606060006001612d8d84613006565b01905060008167ffffffffffffffff811115612dac57612dab61346e565b5b6040519080825280601f01601f191660200182016040528015612dde5781602001600182028036833780820191505090505b509050600082602001820190505b600115612e41578080600190039150507f3031323334353637383961626364656600000000000000000000000000000000600a86061a8153600a8581612e3557612e34614408565b5b04945060008503612dec575b819350505050919050565b600073ffffffffffffffffffffffffffffffffffffffff168273ffffffffffffffffffffffffffffffffffffffff1603612ebe5760006040517f64a0ae92000000000000000000000000000000000000000000000000000000008152600401612eb591906133dd565b60405180910390fd5b6000612ecc838360006121b6565b9050600073ffffffffffffffffffffffffffffffffffffffff168173ffffffffffffffffffffffffffffffffffffffff1614612f405760006040517f73c6ac6e000000000000000000000000000000000000000000000000000000008152600401612f3791906133dd565b60405180910390fd5b505050565b60008073ffffffffffffffffffffffffffffffffffffffff168373ffffffffffffffffffffffffffffffffffffffff1614158015612ffd57508273ffffffffffffffffffffffffffffffffffffffff168473ffffffffffffffffffffffffffffffffffffffff161480612fbe5750612fbd8484611e61565b5b80612ffc57508273ffffffffffffffffffffffffffffffffffffffff16612fe4836120e5565b73ffffffffffffffffffffffffffffffffffffffff16145b5b90509392505050565b600080600090507a184f03e93ff9f4daa797ed6e38ed64bf6a1f0100000000000000008310613064577a184f03e93ff9f4daa797ed6e38ed64bf6a1f010000000000000000838161305a57613059614408565b5b0492506040810190505b6d04ee2d6d415b85acef810000000083106130a1576d04ee2d6d415b85acef8100000000838161309757613096614408565b5b0492506020810190505b662386f26fc1000083106130d057662386f26fc1000083816130c6576130c5614408565b5b0492506010810190505b6305f5e10083106130f9576305f5e10083816130ef576130ee614408565b5b0492506008810190505b612710831061311e57612710838161311457613113614408565b5b0492506004810190505b60648310613141576064838161313757613136614408565b5b0492506002810190505b600a8310613150576001810190505b80915050919050565b60405180610100016040528060008152602001606081526020016060815260200160608152602001600073ffffffffffffffffffffffffffffffffffffffff168152602001600081526020016000151581526020016000151581525090565b6000604051905090565b600080fd5b600080fd5b60007fffffffff0000000000000000000000000000000000000000000000000000000082169050919050565b613201816131cc565b811461320c57600080fd5b50565b60008135905061321e816131f8565b92915050565b60006020828403121561323a576132396131c2565b5b60006132488482850161320f565b91505092915050565b60008115159050919050565b61326681613251565b82525050565b6000602082019050613281600083018461325d565b92915050565b600081519050919050565b600082825260208201905092915050565b60005b838110156132c15780820151818401526020810190506132a6565b60008484015250505050565b6000601f19601f8301169050919050565b60006132e982613287565b6132f38185613292565b93506133038185602086016132a3565b61330c816132cd565b840191505092915050565b6000602082019050818103600083015261333181846132de565b905092915050565b6000819050919050565b61334c81613339565b811461335757600080fd5b50565b60008135905061336981613343565b92915050565b600060208284031215613385576133846131c2565b5b60006133938482850161335a565b91505092915050565b600073ffffffffffffffffffffffffffffffffffffffff82169050919050565b60006133c78261339c565b9050919050565b6133d7816133bc565b82525050565b60006020820190506133f260008301846133ce565b92915050565b613401816133bc565b811461340c57600080fd5b50565b60008135905061341e816133f8565b92915050565b6000806040838503121561343b5761343a6131c2565b5b60006134498582860161340f565b925050602061345a8582860161335a565b9150509250929050565b600080fd5b600080fd5b7f4e487b7100000000000000000000000000000000000000000000000000000000600052604160045260246000fd5b6134a6826132cd565b810181811067ffffffffffffffff821117156134c5576134c461346e565b5b80604052505050565b60006134d86131b8565b90506134e4828261349d565b919050565b600067ffffffffffffffff8211156135045761350361346e565b5b61350d826132cd565b9050602081019050919050565b82818337600083830152505050565b600061353c613537846134e9565b6134ce565b90508281526020810184848401111561355857613557613469565b5b61356384828561351a565b509392505050565b600082601f8301126135805761357f613464565b5b8135613590848260208601613529565b91505092915050565b6000806000606084860312156135b2576135b16131c2565b5b600084013567ffffffffffffffff8111156135d0576135cf6131c7565b5b6135dc8682870161356b565b935050602084013567ffffffffffffffff8111156135fd576135fc6131c7565b5b6136098682870161356b565b925050604084013567ffffffffffffffff81111561362a576136296131c7565b5b6136368682870161356b565b9150509250925092565b61364981613339565b82525050565b60006020820190506136646000830184613640565b92915050565b600080600060608486031215613683576136826131c2565b5b60006136918682870161340f565b93505060206136a28682870161340f565b92505060406136b38682870161335a565b9150509250925092565b60006136c88261339c565b9050919050565b6136d8816136bd565b82525050565b6000610100820190506136f4600083018b613640565b8181036020830152613706818a6132de565b9050818103604083015261371a81896132de565b9050818103606083015261372e81886132de565b905061373d60808301876136cf565b61374a60a0830186613640565b61375760c083018561325d565b61376460e083018461325d565b9998505050505050505050565b600081519050919050565b600082825260208201905092915050565b6000819050602082019050919050565b6137a681613339565b82525050565b600082825260208201905092915050565b60006137c882613287565b6137d281856137ac565b93506137e28185602086016132a3565b6137eb816132cd565b840191505092915050565b6137ff816136bd565b82525050565b61380e81613251565b82525050565b60006101008301600083015161382d600086018261379d565b506020830151848203602086015261384582826137bd565b9150506040830151848203604086015261385f82826137bd565b9150506060830151848203606086015261387982826137bd565b915050608083015161388e60808601826137f6565b5060a08301516138a160a086018261379d565b5060c08301516138b460c0860182613805565b5060e08301516138c760e0860182613805565b508091505092915050565b60006138de8383613814565b905092915050565b6000602082019050919050565b60006138fe82613771565b613908818561377c565b93508360208202850161391a8561378d565b8060005b85811015613956578484038952815161393785826138d2565b9450613942836138e6565b925060208a0199505060018101905061391e565b50829750879550505050505092915050565b6000602082019050818103600083015261398281846138f3565b905092915050565b6000602082840312156139a05761399f6131c2565b5b60006139ae8482850161340f565b91505092915050565b600080604083850312156139ce576139cd6131c2565b5b60006139dc8582860161335a565b92505060206139ed8582860161335a565b9150509250929050565b613a0081613251565b8114613a0b57600080fd5b50565b600081359050613a1d816139f7565b92915050565b60008060408385031215613a3a57613a396131c2565b5b6000613a488582860161340f565b9250506020613a5985828601613a0e565b9150509250929050565b600067ffffffffffffffff821115613a7e57613a7d61346e565b5b613a87826132cd565b9050602081019050919050565b6000613aa7613aa284613a63565b6134ce565b905082815260208101848484011115613ac357613ac2613469565b5b613ace84828561351a565b509392505050565b600082601f830112613aeb57613aea613464565b5b8135613afb848260208601613a94565b91505092915050565b60008060008060808587031215613b1e57613b1d6131c2565b5b6000613b2c8782880161340f565b9450506020613b3d8782880161340f565b9350506040613b4e8782880161335a565b925050606085013567ffffffffffffffff811115613b6f57613b6e6131c7565b5b613b7b87828801613ad6565b91505092959194509250565b60008060408385031215613b9e57613b9d6131c2565b5b6000613bac8582860161340f565b9250506020613bbd8582860161340f565b9150509250929050565b7f4e487b7100000000000000000000000000000000000000000000000000000000600052602260045260246000fd5b60006002820490506001821680613c0e57607f821691505b602082108103613c2157613c20613bc7565b5b50919050565b7f4e487b7100000000000000000000000000000000000000000000000000000000600052601160045260246000fd5b6000613c6182613339565b91507fffffffffffffffffffffffffffffffffffffffffffffffffffffffffffffffff8203613c9357613c92613c27565b5b600182019050919050565b60008190508160005260206000209050919050565b60006020601f8301049050919050565b600082821b905092915050565b600060088302613d007fffffffffffffffffffffffffffffffffffffffffffffffffffffffffffffffff82613cc3565b613d0a8683613cc3565b95508019841693508086168417925050509392505050565b6000819050919050565b6000613d47613d42613d3d84613339565b613d22565b613339565b9050919050565b6000819050919050565b613d6183613d2c565b613d75613d6d82613d4e565b848454613cd0565b825550505050565b600090565b613d8a613d7d565b613d95818484613d58565b505050565b5b81811015613db957613dae600082613d82565b600181019050613d9b565b5050565b601f821115613dfe57613dcf81613c9e565b613dd884613cb3565b81016020851015613de7578190505b613dfb613df385613cb3565b830182613d9a565b50505b505050565b600082821c905092915050565b6000613e2160001984600802613e03565b1980831691505092915050565b6000613e3a8383613e10565b9150826002028217905092915050565b613e5382613287565b67ffffffffffffffff811115613e6c57613e6b61346e565b5b613e768254613bf6565b613e81828285613dbd565b600060209050601f831160018114613eb45760008415613ea2578287015190505b613eac8582613e2e565b865550613f14565b601f198416613ec286613c9e565b60005b82811015613eea57848901518255600182019150602085019450602081019050613ec5565b86831015613f075784890151613f03601f891682613e10565b8355505b6001600288020188555050505b505050505050565b6000606082019050613f3160008301866133ce565b613f3e6020830185613640565b613f4b60408301846133ce565b949350505050565b7f4e487b7100000000000000000000000000000000000000000000000000000000600052603260045260246000fd5b7f4e465420616c726561647920736f6c6400000000000000000000000000000000600082015250565b6000613fb8601083613292565b9150613fc382613f82565b602082019050919050565b60006020820190508181036000830152613fe781613fab565b9050919050565b7f4e4654206973206e6f74206c697374656420666f722073616c65000000000000600082015250565b6000614024601a83613292565b915061402f82613fee565b602082019050919050565b6000602082019050818103600083015261405381614017565b9050919050565b7f496e73756666696369656e742066756e64730000000000000000000000000000600082015250565b6000614090601283613292565b915061409b8261405a565b602082019050919050565b600060208201905081810360008301526140bf81614083565b9050919050565b7f4e465420616c7265616479206c69737465640000000000000000000000000000600082015250565b60006140fc601283613292565b9150614107826140c6565b602082019050919050565b6000602082019050818103600083015261412b816140ef565b9050919050565b7f4f6e6c79206f776e65722063616e206c697374204e4654000000000000000000600082015250565b6000614168601783613292565b915061417382614132565b602082019050919050565b600060208201905081810360008301526141978161415b565b9050919050565b7f5072696365206d7573742062652067726561746572207468616e203000000000600082015250565b60006141d4601c83613292565b91506141df8261419e565b602082019050919050565b60006020820190508181036000830152614203816141c7565b9050919050565b7f496e73756666696369656e742066756e647320666f72206c697374696e67206660008201527f6565000000000000000000000000000000000000000000000000000000000000602082015250565b6000614266602283613292565b91506142718261420a565b604082019050919050565b6000602082019050818103600083015261429581614259565b9050919050565b600081905092915050565b60006142b282613287565b6142bc818561429c565b93506142cc8185602086016132a3565b80840191505092915050565b60006142e482856142a7565b91506142f082846142a7565b91508190509392505050565b600081519050919050565b600082825260208201905092915050565b6000614323826142fc565b61432d8185614307565b935061433d8185602086016132a3565b614346816132cd565b840191505092915050565b600060808201905061436660008301876133ce565b61437360208301866133ce565b6143806040830185613640565b81810360608301526143928184614318565b905095945050505050565b6000815190506143ac816131f8565b92915050565b6000602082840312156143c8576143c76131c2565b5b60006143d68482850161439d565b91505092915050565b60006040820190506143f460008301856133ce565b6144016020830184613640565b9392505050565b7f4e487b7100000000000000000000000000000000000000000000000000000000600052601260045260246000fdfea26469706673582212205ac984d5ae0f51744d4197c9b052280228ba521ba4896056fc35c3ef2d10254b64736f6c634300081b0033",
  "linkReferences": {},
  "deployedLinkReferences": {}
}