{
    "_format": "hh-sol-artifact-1",
    "contractName": "NFTMarketplace",
    "sourceName": "contracts/NFTMarketPlace.sol",
    "abi": [
        {
            "inputs": [],
            "stateMutability": "nonpayable",
            "type": "constructor"
        },
        {
            "inputs": [
                {
                    "internalType": "address",
                    "name": "sender",
                    "type": "address"
                },
                {
                    "internalType": "uint256",
                    "name": "tokenId",
                    "type": "uint256"
                },
                {
                    "internalType": "address",
                    "name": "owner",
                    "type": "address"
                }
            ],
            "name": "ERC721IncorrectOwner",
            "type": "error"
        },
        {
            "inputs": [
                {
                    "internalType": "address",
                    "name": "operator",
                    "type": "address"
                },
                {
                    "internalType": "uint256",
                    "name": "tokenId",
                    "type": "uint256"
                }
            ],
            "name": "ERC721InsufficientApproval",
            "type": "error"
        },
        {
            "inputs": [
                {
                    "internalType": "address",
                    "name": "approver",
                    "type": "address"
                }
            ],
            "name": "ERC721InvalidApprover",
            "type": "error"
        },
        {
            "inputs": [
                {
                    "internalType": "address",
                    "name": "operator",
                    "type": "address"
                }
            ],
            "name": "ERC721InvalidOperator",
            "type": "error"
        },
        {
            "inputs": [
                {
                    "internalType": "address",
                    "name": "owner",
                    "type": "address"
                }
            ],
            "name": "ERC721InvalidOwner",
            "type": "error"
        },
        {
            "inputs": [
                {
                    "internalType": "address",
                    "name": "receiver",
                    "type": "address"
                }
            ],
            "name": "ERC721InvalidReceiver",
            "type": "error"
        },
        {
            "inputs": [
                {
                    "internalType": "address",
                    "name": "sender",
                    "type": "address"
                }
            ],
            "name": "ERC721InvalidSender",
            "type": "error"
        },
        {
            "inputs": [
                {
                    "internalType": "uint256",
                    "name": "tokenId",
                    "type": "uint256"
                }
            ],
            "name": "ERC721NonexistentToken",
            "type": "error"
        },
        {
            "inputs": [
                {
                    "internalType": "address",
                    "name": "owner",
                    "type": "address"
                }
            ],
            "name": "OwnableInvalidOwner",
            "type": "error"
        },
        {
            "inputs": [
                {
                    "internalType": "address",
                    "name": "account",
                    "type": "address"
                }
            ],
            "name": "OwnableUnauthorizedAccount",
            "type": "error"
        },
        {
            "anonymous": false,
            "inputs": [
                {
                    "indexed": true,
                    "internalType": "address",
                    "name": "owner",
                    "type": "address"
                },
                {
                    "indexed": true,
                    "internalType": "address",
                    "name": "approved",
                    "type": "address"
                },
                {
                    "indexed": true,
                    "internalType": "uint256",
                    "name": "tokenId",
                    "type": "uint256"
                }
            ],
            "name": "Approval",
            "type": "event"
        },
        {
            "anonymous": false,
            "inputs": [
                {
                    "indexed": true,
                    "internalType": "address",
                    "name": "owner",
                    "type": "address"
                },
                {
                    "indexed": true,
                    "internalType": "address",
                    "name": "operator",
                    "type": "address"
                },
                {
                    "indexed": false,
                    "internalType": "bool",
                    "name": "approved",
                    "type": "bool"
                }
            ],
            "name": "ApprovalForAll",
            "type": "event"
        },
        {
            "anonymous": false,
            "inputs": [
                {
                    "indexed": false,
                    "internalType": "uint256",
                    "name": "_fromTokenId",
                    "type": "uint256"
                },
                {
                    "indexed": false,
                    "internalType": "uint256",
                    "name": "_toTokenId",
                    "type": "uint256"
                }
            ],
            "name": "BatchMetadataUpdate",
            "type": "event"
        },
        {
            "anonymous": false,
            "inputs": [
                {
                    "indexed": false,
                    "internalType": "uint256",
                    "name": "_tokenId",
                    "type": "uint256"
                }
            ],
            "name": "MetadataUpdate",
            "type": "event"
        },
        {
            "anonymous": false,
            "inputs": [
                {
                    "indexed": false,
                    "internalType": "uint256",
                    "name": "tokenId",
                    "type": "uint256"
                }
            ],
            "name": "NFTListed",
            "type": "event"
        },
        {
            "anonymous": false,
            "inputs": [
                {
                    "indexed": false,
                    "internalType": "uint256",
                    "name": "tokenId",
                    "type": "uint256"
                }
            ],
            "name": "NFTMinted",
            "type": "event"
        },
        {
            "anonymous": false,
            "inputs": [
                {
                    "indexed": false,
                    "internalType": "uint256",
                    "name": "tokenId",
                    "type": "uint256"
                }
            ],
            "name": "NFTSold",
            "type": "event"
        },
        {
            "anonymous": false,
            "inputs": [
                {
                    "indexed": true,
                    "internalType": "address",
                    "name": "previousOwner",
                    "type": "address"
                },
                {
                    "indexed": true,
                    "internalType": "address",
                    "name": "newOwner",
                    "type": "address"
                }
            ],
            "name": "OwnershipTransferred",
            "type": "event"
        },
        {
            "anonymous": false,
            "inputs": [
                {
                    "indexed": true,
                    "internalType": "address",
                    "name": "from",
                    "type": "address"
                },
                {
                    "indexed": true,
                    "internalType": "address",
                    "name": "to",
                    "type": "address"
                },
                {
                    "indexed": true,
                    "internalType": "uint256",
                    "name": "tokenId",
                    "type": "uint256"
                }
            ],
            "name": "Transfer",
            "type": "event"
        },
        {
            "inputs": [
                {
                    "internalType": "address",
                    "name": "to",
                    "type": "address"
                },
                {
                    "internalType": "uint256",
                    "name": "tokenId",
                    "type": "uint256"
                }
            ],
            "name": "approve",
            "outputs": [],
            "stateMutability": "nonpayable",
            "type": "function"
        },
        {
            "inputs": [
                {
                    "internalType": "address",
                    "name": "owner",
                    "type": "address"
                }
            ],
            "name": "balanceOf",
            "outputs": [
                {
                    "internalType": "uint256",
                    "name": "",
                    "type": "uint256"
                }
            ],
            "stateMutability": "view",
            "type": "function"
        },
        {
            "inputs": [
                {
                    "internalType": "uint256",
                    "name": "_itemId",
                    "type": "uint256"
                }
            ],
            "name": "buyNFT",
            "outputs": [],
            "stateMutability": "payable",
            "type": "function"
        },
        {
            "inputs": [
                {
                    "internalType": "uint256",
                    "name": "tokenId",
                    "type": "uint256"
                }
            ],
            "name": "getApproved",
            "outputs": [
                {
                    "internalType": "address",
                    "name": "",
                    "type": "address"
                }
            ],
            "stateMutability": "view",
            "type": "function"
        },
        {
            "inputs": [
                {
                    "internalType": "address",
                    "name": "owner",
                    "type": "address"
                },
                {
                    "internalType": "address",
                    "name": "operator",
                    "type": "address"
                }
            ],
            "name": "isApprovedForAll",
            "outputs": [
                {
                    "internalType": "bool",
                    "name": "",
                    "type": "bool"
                }
            ],
            "stateMutability": "view",
            "type": "function"
        },
        {
            "inputs": [
                {
                    "internalType": "uint256",
                    "name": "_itemId",
                    "type": "uint256"
                },
                {
                    "internalType": "uint256",
                    "name": "_price",
                    "type": "uint256"
                }
            ],
            "name": "listNFT",
            "outputs": [],
            "stateMutability": "payable",
            "type": "function"
        },
        {
            "inputs": [
                {
                    "internalType": "string",
                    "name": "_tokenURI",
                    "type": "string"
                }
            ],
            "name": "mintNFT",
            "outputs": [
                {
                    "internalType": "uint256",
                    "name": "",
                    "type": "uint256"
                }
            ],
            "stateMutability": "nonpayable",
            "type": "function"
        },
        {
            "inputs": [],
            "name": "name",
            "outputs": [
                {
                    "internalType": "string",
                    "name": "",
                    "type": "string"
                }
            ],
            "stateMutability": "view",
            "type": "function"
        },
        {
            "inputs": [
                {
                    "internalType": "uint256",
                    "name": "",
                    "type": "uint256"
                }
            ],
            "name": "nfts",
            "outputs": [
                {
                    "internalType": "uint256",
                    "name": "tokenId",
                    "type": "uint256"
                },
                {
                    "internalType": "string",
                    "name": "url",
                    "type": "string"
                },
                {
                    "internalType": "address payable",
                    "name": "owner",
                    "type": "address"
                },
                {
                    "internalType": "uint256",
                    "name": "price",
                    "type": "uint256"
                },
                {
                    "internalType": "bool",
                    "name": "isListed",
                    "type": "bool"
                },
                {
                    "internalType": "bool",
                    "name": "isSold",
                    "type": "bool"
                }
            ],
            "stateMutability": "view",
            "type": "function"
        },
        {
            "inputs": [],
            "name": "owner",
            "outputs": [
                {
                    "internalType": "address",
                    "name": "",
                    "type": "address"
                }
            ],
            "stateMutability": "view",
            "type": "function"
        },
        {
            "inputs": [
                {
                    "internalType": "uint256",
                    "name": "tokenId",
                    "type": "uint256"
                }
            ],
            "name": "ownerOf",
            "outputs": [
                {
                    "internalType": "address",
                    "name": "",
                    "type": "address"
                }
            ],
            "stateMutability": "view",
            "type": "function"
        },
        {
            "inputs": [],
            "name": "renounceOwnership",
            "outputs": [],
            "stateMutability": "nonpayable",
            "type": "function"
        },
        {
            "inputs": [
                {
                    "internalType": "address",
                    "name": "from",
                    "type": "address"
                },
                {
                    "internalType": "address",
                    "name": "to",
                    "type": "address"
                },
                {
                    "internalType": "uint256",
                    "name": "tokenId",
                    "type": "uint256"
                }
            ],
            "name": "safeTransferFrom",
            "outputs": [],
            "stateMutability": "nonpayable",
            "type": "function"
        },
        {
            "inputs": [
                {
                    "internalType": "address",
                    "name": "from",
                    "type": "address"
                },
                {
                    "internalType": "address",
                    "name": "to",
                    "type": "address"
                },
                {
                    "internalType": "uint256",
                    "name": "tokenId",
                    "type": "uint256"
                },
                {
                    "internalType": "bytes",
                    "name": "data",
                    "type": "bytes"
                }
            ],
            "name": "safeTransferFrom",
            "outputs": [],
            "stateMutability": "nonpayable",
            "type": "function"
        },
        {
            "inputs": [
                {
                    "internalType": "address",
                    "name": "operator",
                    "type": "address"
                },
                {
                    "internalType": "bool",
                    "name": "approved",
                    "type": "bool"
                }
            ],
            "name": "setApprovalForAll",
            "outputs": [],
            "stateMutability": "nonpayable",
            "type": "function"
        },
        {
            "inputs": [
                {
                    "internalType": "bytes4",
                    "name": "interfaceId",
                    "type": "bytes4"
                }
            ],
            "name": "supportsInterface",
            "outputs": [
                {
                    "internalType": "bool",
                    "name": "",
                    "type": "bool"
                }
            ],
            "stateMutability": "view",
            "type": "function"
        },
        {
            "inputs": [],
            "name": "symbol",
            "outputs": [
                {
                    "internalType": "string",
                    "name": "",
                    "type": "string"
                }
            ],
            "stateMutability": "view",
            "type": "function"
        },
        {
            "inputs": [
                {
                    "internalType": "uint256",
                    "name": "tokenId",
                    "type": "uint256"
                }
            ],
            "name": "tokenURI",
            "outputs": [
                {
                    "internalType": "string",
                    "name": "",
                    "type": "string"
                }
            ],
            "stateMutability": "view",
            "type": "function"
        },
        {
            "inputs": [
                {
                    "internalType": "address",
                    "name": "from",
                    "type": "address"
                },
                {
                    "internalType": "address",
                    "name": "to",
                    "type": "address"
                },
                {
                    "internalType": "uint256",
                    "name": "tokenId",
                    "type": "uint256"
                }
            ],
            "name": "transferFrom",
            "outputs": [],
            "stateMutability": "nonpayable",
            "type": "function"
        },
        {
            "inputs": [
                {
                    "internalType": "address",
                    "name": "newOwner",
                    "type": "address"
                }
            ],
            "name": "transferOwnership",
            "outputs": [],
            "stateMutability": "nonpayable",
            "type": "function"
        },
        {
            "inputs": [],
            "name": "withdraw",
            "outputs": [],
            "stateMutability": "payable",
            "type": "function"
        }
    ],
    "bytecode": "0x6080604052651fd512913000600855600060095534801561001f57600080fd5b50336040518060400160405280600581526020017f53435542490000000000000000000000000000000000000000000000000000008152506040518060400160405280600381526020017f5343420000000000000000000000000000000000000000000000000000000000815250816000908161009c919061044c565b5080600190816100ac919061044c565b505050600073ffffffffffffffffffffffffffffffffffffffff168173ffffffffffffffffffffffffffffffffffffffff16036101215760006040517f1e4fbdf7000000000000000000000000000000000000000000000000000000008152600401610118919061055f565b60405180910390fd5b6101308161013660201b60201c565b5061057a565b6000600760009054906101000a900473ffffffffffffffffffffffffffffffffffffffff16905081600760006101000a81548173ffffffffffffffffffffffffffffffffffffffff021916908373ffffffffffffffffffffffffffffffffffffffff1602179055508173ffffffffffffffffffffffffffffffffffffffff168173ffffffffffffffffffffffffffffffffffffffff167f8be0079c531659141344cd1fd0a4f28419497f9722a3daafe3b4186f6b6457e060405160405180910390a35050565b600081519050919050565b7f4e487b7100000000000000000000000000000000000000000000000000000000600052604160045260246000fd5b7f4e487b7100000000000000000000000000000000000000000000000000000000600052602260045260246000fd5b6000600282049050600182168061027d57607f821691505b6020821081036102905761028f610236565b5b50919050565b60008190508160005260206000209050919050565b60006020601f8301049050919050565b600082821b905092915050565b6000600883026102f87fffffffffffffffffffffffffffffffffffffffffffffffffffffffffffffffff826102bb565b61030286836102bb565b95508019841693508086168417925050509392505050565b6000819050919050565b6000819050919050565b600061034961034461033f8461031a565b610324565b61031a565b9050919050565b6000819050919050565b6103638361032e565b61037761036f82610350565b8484546102c8565b825550505050565b600090565b61038c61037f565b61039781848461035a565b505050565b5b818110156103bb576103b0600082610384565b60018101905061039d565b5050565b601f821115610400576103d181610296565b6103da846102ab565b810160208510156103e9578190505b6103fd6103f5856102ab565b83018261039c565b50505b505050565b600082821c905092915050565b600061042360001984600802610405565b1980831691505092915050565b600061043c8383610412565b9150826002028217905092915050565b610455826101fc565b67ffffffffffffffff81111561046e5761046d610207565b5b6104788254610265565b6104838282856103bf565b600060209050601f8311600181146104b657600084156104a4578287015190505b6104ae8582610430565b865550610516565b601f1984166104c486610296565b60005b828110156104ec578489015182556001820191506020850194506020810190506104c7565b868310156105095784890151610505601f891682610412565b8355505b6001600288020188555050505b505050505050565b600073ffffffffffffffffffffffffffffffffffffffff82169050919050565b60006105498261051e565b9050919050565b6105598161053e565b82525050565b60006020820190506105746000830184610550565b92915050565b6134b8806105896000396000f3fe60806040526004361061012a5760003560e01c806370a08231116100ab578063a22cb4651161006f578063a22cb465146103ba578063b88d4fde146103e3578063c87b56dd1461040c578063e985e9c514610449578063f2fde38b14610486578063fb37e883146104af5761012a565b806370a08231146102f4578063715018a6146103315780638da5cb5b1461034857806394383f141461037357806395d89b411461038f5761012a565b8063265aa621116100f2578063265aa621146102265780633ccfd60b1461026857806342842e0e1461027257806351ed82881461029b5780636352211e146102b75761012a565b806301ffc9a71461012f57806306fdde031461016c578063081812fc14610197578063095ea7b3146101d457806323b872dd146101fd575b600080fd5b34801561013b57600080fd5b5061015660048036038101906101519190612540565b6104ec565b6040516101639190612588565b60405180910390f35b34801561017857600080fd5b5061018161054d565b60405161018e9190612633565b60405180910390f35b3480156101a357600080fd5b506101be60048036038101906101b9919061268b565b6105df565b6040516101cb91906126f9565b60405180910390f35b3480156101e057600080fd5b506101fb60048036038101906101f69190612740565b6105fb565b005b34801561020957600080fd5b50610224600480360381019061021f9190612780565b610611565b005b34801561023257600080fd5b5061024d6004803603810190610248919061268b565b610713565b60405161025f96959493929190612803565b60405180910390f35b610270610811565b005b34801561027e57600080fd5b5061029960048036038101906102949190612780565b610869565b005b6102b560048036038101906102b0919061268b565b610889565b005b3480156102c357600080fd5b506102de60048036038101906102d9919061268b565b610b24565b6040516102eb91906126f9565b60405180910390f35b34801561030057600080fd5b5061031b6004803603810190610316919061286b565b610b36565b6040516103289190612898565b60405180910390f35b34801561033d57600080fd5b50610346610bf0565b005b34801561035457600080fd5b5061035d610c04565b60405161036a91906126f9565b60405180910390f35b61038d600480360381019061038891906128b3565b610c2e565b005b34801561039b57600080fd5b506103a4610e72565b6040516103b19190612633565b60405180910390f35b3480156103c657600080fd5b506103e160048036038101906103dc919061291f565b610f04565b005b3480156103ef57600080fd5b5061040a60048036038101906104059190612a94565b610f1a565b005b34801561041857600080fd5b50610433600480360381019061042e919061268b565b610f3f565b6040516104409190612633565b60405180910390f35b34801561045557600080fd5b50610470600480360381019061046b9190612b17565b611052565b60405161047d9190612588565b60405180910390f35b34801561049257600080fd5b506104ad60048036038101906104a8919061286b565b6110e6565b005b3480156104bb57600080fd5b506104d660048036038101906104d19190612bf8565b61116c565b6040516104e39190612898565b60405180910390f35b6000634906490660e01b7bffffffffffffffffffffffffffffffffffffffffffffffffffffffff1916827bffffffffffffffffffffffffffffffffffffffffffffffffffffffff191614806105465750610545826112f6565b5b9050919050565b60606000805461055c90612c70565b80601f016020809104026020016040519081016040528092919081815260200182805461058890612c70565b80156105d55780601f106105aa576101008083540402835291602001916105d5565b820191906000526020600020905b8154815290600101906020018083116105b857829003601f168201915b5050505050905090565b60006105ea826113d8565b506105f482611460565b9050919050565b61060d828261060861149d565b6114a5565b5050565b600073ffffffffffffffffffffffffffffffffffffffff168273ffffffffffffffffffffffffffffffffffffffff16036106835760006040517f64a0ae9200000000000000000000000000000000000000000000000000000000815260040161067a91906126f9565b60405180910390fd5b6000610697838361069261149d565b6114b7565b90508373ffffffffffffffffffffffffffffffffffffffff168173ffffffffffffffffffffffffffffffffffffffff161461070d578382826040517f64283d7b00000000000000000000000000000000000000000000000000000000815260040161070493929190612ca1565b60405180910390fd5b50505050565b600a60205280600052604060002060009150905080600001549080600101805461073c90612c70565b80601f016020809104026020016040519081016040528092919081815260200182805461076890612c70565b80156107b55780601f1061078a576101008083540402835291602001916107b5565b820191906000526020600020905b81548152906001019060200180831161079857829003601f168201915b5050505050908060020160009054906101000a900473ffffffffffffffffffffffffffffffffffffffff16908060030154908060040160009054906101000a900460ff16908060040160019054906101000a900460ff16905086565b6108196116d1565b610821610c04565b73ffffffffffffffffffffffffffffffffffffffff166108fc479081150290604051600060405180830381858888f19350505050158015610866573d6000803e3d6000fd5b50565b61088483838360405180602001604052806000815250610f1a565b505050565b600a600082815260200190815260200160002060040160019054906101000a900460ff16156108ed576040517f08c379a00000000000000000000000000000000000000000000000000000000081526004016108e490612d24565b60405180910390fd5b600a600082815260200190815260200160002060040160009054906101000a900460ff16610950576040517f08c379a000000000000000000000000000000000000000000000000000000000815260040161094790612d90565b60405180910390fd5b600a6000828152602001908152602001600020600301543410156109a9576040517f08c379a00000000000000000000000000000000000000000000000000000000081526004016109a090612dfc565b60405180910390fd5b6000600a600083815260200190815260200160002060020160009054906101000a900473ffffffffffffffffffffffffffffffffffffffff16905033600a600084815260200190815260200160002060020160006101000a81548173ffffffffffffffffffffffffffffffffffffffff021916908373ffffffffffffffffffffffffffffffffffffffff1602179055506000600a600084815260200190815260200160002060040160006101000a81548160ff0219169083151502179055506001600a600084815260200190815260200160002060040160016101000a81548160ff021916908315150217905550610aa2813384611758565b8073ffffffffffffffffffffffffffffffffffffffff166108fc349081150290604051600060405180830381858888f19350505050158015610ae8573d6000803e3d6000fd5b507f99fd446919f411e1e2465d90963ce1ca74a380a81a2540bf3732adc28d36e0b582604051610b189190612898565b60405180910390a15050565b6000610b2f826113d8565b9050919050565b60008073ffffffffffffffffffffffffffffffffffffffff168273ffffffffffffffffffffffffffffffffffffffff1603610ba95760006040517f89c62b64000000000000000000000000000000000000000000000000000000008152600401610ba091906126f9565b60405180910390fd5b600360008373ffffffffffffffffffffffffffffffffffffffff1673ffffffffffffffffffffffffffffffffffffffff168152602001908152602001600020549050919050565b610bf86116d1565b610c0260006118c5565b565b6000600760009054906101000a900473ffffffffffffffffffffffffffffffffffffffff16905090565b600a600083815260200190815260200160002060040160009054906101000a900460ff1615610c92576040517f08c379a0000000000000000000000000000000000000000000000000000000008152600401610c8990612e68565b60405180910390fd5b600a600083815260200190815260200160002060020160009054906101000a900473ffffffffffffffffffffffffffffffffffffffff1673ffffffffffffffffffffffffffffffffffffffff163373ffffffffffffffffffffffffffffffffffffffff1614610d36576040517f08c379a0000000000000000000000000000000000000000000000000000000008152600401610d2d90612ed4565b60405180910390fd5b60008111610d79576040517f08c379a0000000000000000000000000000000000000000000000000000000008152600401610d7090612f40565b60405180910390fd5b600854341015610dbe576040517f08c379a0000000000000000000000000000000000000000000000000000000008152600401610db590612fd2565b60405180910390fd5b80600a6000848152602001908152602001600020600301819055506001600a600084815260200190815260200160002060040160006101000a81548160ff0219169083151502179055506000600a600084815260200190815260200160002060040160016101000a81548160ff0219169083151502179055507fdb1fd9bae40110b73b6592270632b19e60d204d52ee5cd72c60d076e6bdd342f82604051610e669190612898565b60405180910390a15050565b606060018054610e8190612c70565b80601f0160208091040260200160405190810160405280929190818152602001828054610ead90612c70565b8015610efa5780601f10610ecf57610100808354040283529160200191610efa565b820191906000526020600020905b815481529060010190602001808311610edd57829003601f168201915b5050505050905090565b610f16610f0f61149d565b838361198b565b5050565b610f25848484610611565b610f39610f3061149d565b85858585611afa565b50505050565b6060610f4a826113d8565b506000600660008481526020019081526020016000208054610f6b90612c70565b80601f0160208091040260200160405190810160405280929190818152602001828054610f9790612c70565b8015610fe45780601f10610fb957610100808354040283529160200191610fe4565b820191906000526020600020905b815481529060010190602001808311610fc757829003601f168201915b505050505090506000610ff5611cab565b9050600081510361100a57819250505061104d565b60008251111561103f57808260405160200161102792919061302e565b6040516020818303038152906040529250505061104d565b61104884611cc2565b925050505b919050565b6000600560008473ffffffffffffffffffffffffffffffffffffffff1673ffffffffffffffffffffffffffffffffffffffff16815260200190815260200160002060008373ffffffffffffffffffffffffffffffffffffffff1673ffffffffffffffffffffffffffffffffffffffff16815260200190815260200160002060009054906101000a900460ff16905092915050565b6110ee6116d1565b600073ffffffffffffffffffffffffffffffffffffffff168173ffffffffffffffffffffffffffffffffffffffff16036111605760006040517f1e4fbdf700000000000000000000000000000000000000000000000000000000815260040161115791906126f9565b60405180910390fd5b611169816118c5565b50565b60006009600081548092919061118190613081565b919050555061119233600954611d2b565b61119e60095483611d49565b6040518060c0016040528060095481526020018381526020013373ffffffffffffffffffffffffffffffffffffffff1681526020016000815260200160001515815260200160001515815250600a6000600954815260200190815260200160002060008201518160000155602082015181600101908161121e9190613275565b5060408201518160020160006101000a81548173ffffffffffffffffffffffffffffffffffffffff021916908373ffffffffffffffffffffffffffffffffffffffff1602179055506060820151816003015560808201518160040160006101000a81548160ff02191690831515021790555060a08201518160040160016101000a81548160ff0219169083151502179055509050507fd9dc24857f317ed9abbbb42e920ede0104231eb1d3d70236a74887ffaf1598686009546040516112e49190612898565b60405180910390a16009549050919050565b60007f80ac58cd000000000000000000000000000000000000000000000000000000007bffffffffffffffffffffffffffffffffffffffffffffffffffffffff1916827bffffffffffffffffffffffffffffffffffffffffffffffffffffffff191614806113c157507f5b5e139f000000000000000000000000000000000000000000000000000000007bffffffffffffffffffffffffffffffffffffffffffffffffffffffff1916827bffffffffffffffffffffffffffffffffffffffffffffffffffffffff1916145b806113d157506113d082611da5565b5b9050919050565b6000806113e483611e0f565b9050600073ffffffffffffffffffffffffffffffffffffffff168173ffffffffffffffffffffffffffffffffffffffff160361145757826040517f7e27328900000000000000000000000000000000000000000000000000000000815260040161144e9190612898565b60405180910390fd5b80915050919050565b60006004600083815260200190815260200160002060009054906101000a900473ffffffffffffffffffffffffffffffffffffffff169050919050565b600033905090565b6114b28383836001611e4c565b505050565b6000806114c384611e0f565b9050600073ffffffffffffffffffffffffffffffffffffffff168373ffffffffffffffffffffffffffffffffffffffff161461150557611504818486612011565b5b600073ffffffffffffffffffffffffffffffffffffffff168173ffffffffffffffffffffffffffffffffffffffff161461159657611547600085600080611e4c565b6001600360008373ffffffffffffffffffffffffffffffffffffffff1673ffffffffffffffffffffffffffffffffffffffff168152602001908152602001600020600082825403925050819055505b600073ffffffffffffffffffffffffffffffffffffffff168573ffffffffffffffffffffffffffffffffffffffff1614611619576001600360008773ffffffffffffffffffffffffffffffffffffffff1673ffffffffffffffffffffffffffffffffffffffff168152602001908152602001600020600082825401925050819055505b846002600086815260200190815260200160002060006101000a81548173ffffffffffffffffffffffffffffffffffffffff021916908373ffffffffffffffffffffffffffffffffffffffff160217905550838573ffffffffffffffffffffffffffffffffffffffff168273ffffffffffffffffffffffffffffffffffffffff167fddf252ad1be2c89b69c2b068fc378daa952ba7f163c4a11628f55a4df523b3ef60405160405180910390a4809150509392505050565b6116d961149d565b73ffffffffffffffffffffffffffffffffffffffff166116f7610c04565b73ffffffffffffffffffffffffffffffffffffffff16146117565761171a61149d565b6040517f118cdaa700000000000000000000000000000000000000000000000000000000815260040161174d91906126f9565b60405180910390fd5b565b600073ffffffffffffffffffffffffffffffffffffffff168273ffffffffffffffffffffffffffffffffffffffff16036117ca5760006040517f64a0ae920000000000000000000000000000000000000000000000000000000081526004016117c191906126f9565b60405180910390fd5b60006117d8838360006114b7565b9050600073ffffffffffffffffffffffffffffffffffffffff168173ffffffffffffffffffffffffffffffffffffffff160361184b57816040517f7e2732890000000000000000000000000000000000000000000000000000000081526004016118429190612898565b60405180910390fd5b8373ffffffffffffffffffffffffffffffffffffffff168173ffffffffffffffffffffffffffffffffffffffff16146118bf578382826040517f64283d7b0000000000000000000000000000000000000000000000000000000081526004016118b693929190612ca1565b60405180910390fd5b50505050565b6000600760009054906101000a900473ffffffffffffffffffffffffffffffffffffffff16905081600760006101000a81548173ffffffffffffffffffffffffffffffffffffffff021916908373ffffffffffffffffffffffffffffffffffffffff1602179055508173ffffffffffffffffffffffffffffffffffffffff168173ffffffffffffffffffffffffffffffffffffffff167f8be0079c531659141344cd1fd0a4f28419497f9722a3daafe3b4186f6b6457e060405160405180910390a35050565b600073ffffffffffffffffffffffffffffffffffffffff168273ffffffffffffffffffffffffffffffffffffffff16036119fc57816040517f5b08ba180000000000000000000000000000000000000000000000000000000081526004016119f391906126f9565b60405180910390fd5b80600560008573ffffffffffffffffffffffffffffffffffffffff1673ffffffffffffffffffffffffffffffffffffffff16815260200190815260200160002060008473ffffffffffffffffffffffffffffffffffffffff1673ffffffffffffffffffffffffffffffffffffffff16815260200190815260200160002060006101000a81548160ff0219169083151502179055508173ffffffffffffffffffffffffffffffffffffffff168373ffffffffffffffffffffffffffffffffffffffff167f17307eab39ab6107e8899845ad3d59bd9653f200f220920489ca2b5937696c3183604051611aed9190612588565b60405180910390a3505050565b60008373ffffffffffffffffffffffffffffffffffffffff163b1115611ca4578273ffffffffffffffffffffffffffffffffffffffff1663150b7a02868685856040518563ffffffff1660e01b8152600401611b59949392919061339c565b6020604051808303816000875af1925050508015611b9557506040513d601f19601f82011682018060405250810190611b9291906133fd565b60015b611c19573d8060008114611bc5576040519150601f19603f3d011682016040523d82523d6000602084013e611bca565b606091505b506000815103611c1157836040517f64a0ae92000000000000000000000000000000000000000000000000000000008152600401611c0891906126f9565b60405180910390fd5b805181602001fd5b63150b7a0260e01b7bffffffffffffffffffffffffffffffffffffffffffffffffffffffff1916817bffffffffffffffffffffffffffffffffffffffffffffffffffffffff191614611ca257836040517f64a0ae92000000000000000000000000000000000000000000000000000000008152600401611c9991906126f9565b60405180910390fd5b505b5050505050565b606060405180602001604052806000815250905090565b6060611ccd826113d8565b506000611cd8611cab565b90506000815111611cf85760405180602001604052806000815250611d23565b80611d02846120d5565b604051602001611d1392919061302e565b6040516020818303038152906040525b915050919050565b611d458282604051806020016040528060008152506121a3565b5050565b80600660008481526020019081526020016000209081611d699190613275565b507ff8e1a15aba9398e019f0b49df1a4fde98ee17ae345cb5f6b5e2c27f5033e8ce782604051611d999190612898565b60405180910390a15050565b60007f01ffc9a7000000000000000000000000000000000000000000000000000000007bffffffffffffffffffffffffffffffffffffffffffffffffffffffff1916827bffffffffffffffffffffffffffffffffffffffffffffffffffffffff1916149050919050565b60006002600083815260200190815260200160002060009054906101000a900473ffffffffffffffffffffffffffffffffffffffff169050919050565b8080611e855750600073ffffffffffffffffffffffffffffffffffffffff168273ffffffffffffffffffffffffffffffffffffffff1614155b15611fb9576000611e95846113d8565b9050600073ffffffffffffffffffffffffffffffffffffffff168373ffffffffffffffffffffffffffffffffffffffff1614158015611f0057508273ffffffffffffffffffffffffffffffffffffffff168173ffffffffffffffffffffffffffffffffffffffff1614155b8015611f135750611f118184611052565b155b15611f5557826040517fa9fbf51f000000000000000000000000000000000000000000000000000000008152600401611f4c91906126f9565b60405180910390fd5b8115611fb757838573ffffffffffffffffffffffffffffffffffffffff168273ffffffffffffffffffffffffffffffffffffffff167f8c5be1e5ebec7d5bd14f71427d1e84f3dd0314c0f7b2291e5b200ac8c7c3b92560405160405180910390a45b505b836004600085815260200190815260200160002060006101000a81548173ffffffffffffffffffffffffffffffffffffffff021916908373ffffffffffffffffffffffffffffffffffffffff16021790555050505050565b61201c8383836121c7565b6120d057600073ffffffffffffffffffffffffffffffffffffffff168373ffffffffffffffffffffffffffffffffffffffff160361209157806040517f7e2732890000000000000000000000000000000000000000000000000000000081526004016120889190612898565b60405180910390fd5b81816040517f177e802f0000000000000000000000000000000000000000000000000000000081526004016120c792919061342a565b60405180910390fd5b505050565b6060600060016120e484612288565b01905060008167ffffffffffffffff81111561210357612102612969565b5b6040519080825280601f01601f1916602001820160405280156121355781602001600182028036833780820191505090505b509050600082602001820190505b600115612198578080600190039150507f3031323334353637383961626364656600000000000000000000000000000000600a86061a8153600a858161218c5761218b613453565b5b04945060008503612143575b819350505050919050565b6121ad83836123db565b6121c26121b861149d565b6000858585611afa565b505050565b60008073ffffffffffffffffffffffffffffffffffffffff168373ffffffffffffffffffffffffffffffffffffffff161415801561227f57508273ffffffffffffffffffffffffffffffffffffffff168473ffffffffffffffffffffffffffffffffffffffff161480612240575061223f8484611052565b5b8061227e57508273ffffffffffffffffffffffffffffffffffffffff1661226683611460565b73ffffffffffffffffffffffffffffffffffffffff16145b5b90509392505050565b600080600090507a184f03e93ff9f4daa797ed6e38ed64bf6a1f01000000000000000083106122e6577a184f03e93ff9f4daa797ed6e38ed64bf6a1f01000000000000000083816122dc576122db613453565b5b0492506040810190505b6d04ee2d6d415b85acef81000000008310612323576d04ee2d6d415b85acef8100000000838161231957612318613453565b5b0492506020810190505b662386f26fc10000831061235257662386f26fc10000838161234857612347613453565b5b0492506010810190505b6305f5e100831061237b576305f5e100838161237157612370613453565b5b0492506008810190505b61271083106123a057612710838161239657612395613453565b5b0492506004810190505b606483106123c357606483816123b9576123b8613453565b5b0492506002810190505b600a83106123d2576001810190505b80915050919050565b600073ffffffffffffffffffffffffffffffffffffffff168273ffffffffffffffffffffffffffffffffffffffff160361244d5760006040517f64a0ae9200000000000000000000000000000000000000000000000000000000815260040161244491906126f9565b60405180910390fd5b600061245b838360006114b7565b9050600073ffffffffffffffffffffffffffffffffffffffff168173ffffffffffffffffffffffffffffffffffffffff16146124cf5760006040517f73c6ac6e0000000000000000000000000000000000000000000000000000000081526004016124c691906126f9565b60405180910390fd5b505050565b6000604051905090565b600080fd5b600080fd5b60007fffffffff0000000000000000000000000000000000000000000000000000000082169050919050565b61251d816124e8565b811461252857600080fd5b50565b60008135905061253a81612514565b92915050565b600060208284031215612556576125556124de565b5b60006125648482850161252b565b91505092915050565b60008115159050919050565b6125828161256d565b82525050565b600060208201905061259d6000830184612579565b92915050565b600081519050919050565b600082825260208201905092915050565b60005b838110156125dd5780820151818401526020810190506125c2565b60008484015250505050565b6000601f19601f8301169050919050565b6000612605826125a3565b61260f81856125ae565b935061261f8185602086016125bf565b612628816125e9565b840191505092915050565b6000602082019050818103600083015261264d81846125fa565b905092915050565b6000819050919050565b61266881612655565b811461267357600080fd5b50565b6000813590506126858161265f565b92915050565b6000602082840312156126a1576126a06124de565b5b60006126af84828501612676565b91505092915050565b600073ffffffffffffffffffffffffffffffffffffffff82169050919050565b60006126e3826126b8565b9050919050565b6126f3816126d8565b82525050565b600060208201905061270e60008301846126ea565b92915050565b61271d816126d8565b811461272857600080fd5b50565b60008135905061273a81612714565b92915050565b60008060408385031215612757576127566124de565b5b60006127658582860161272b565b925050602061277685828601612676565b9150509250929050565b600080600060608486031215612799576127986124de565b5b60006127a78682870161272b565b93505060206127b88682870161272b565b92505060406127c986828701612676565b9150509250925092565b6127dc81612655565b82525050565b60006127ed826126b8565b9050919050565b6127fd816127e2565b82525050565b600060c08201905061281860008301896127d3565b818103602083015261282a81886125fa565b905061283960408301876127f4565b61284660608301866127d3565b6128536080830185612579565b61286060a0830184612579565b979650505050505050565b600060208284031215612881576128806124de565b5b600061288f8482850161272b565b91505092915050565b60006020820190506128ad60008301846127d3565b92915050565b600080604083850312156128ca576128c96124de565b5b60006128d885828601612676565b92505060206128e985828601612676565b9150509250929050565b6128fc8161256d565b811461290757600080fd5b50565b600081359050612919816128f3565b92915050565b60008060408385031215612936576129356124de565b5b60006129448582860161272b565b92505060206129558582860161290a565b9150509250929050565b600080fd5b600080fd5b7f4e487b7100000000000000000000000000000000000000000000000000000000600052604160045260246000fd5b6129a1826125e9565b810181811067ffffffffffffffff821117156129c0576129bf612969565b5b80604052505050565b60006129d36124d4565b90506129df8282612998565b919050565b600067ffffffffffffffff8211156129ff576129fe612969565b5b612a08826125e9565b9050602081019050919050565b82818337600083830152505050565b6000612a37612a32846129e4565b6129c9565b905082815260208101848484011115612a5357612a52612964565b5b612a5e848285612a15565b509392505050565b600082601f830112612a7b57612a7a61295f565b5b8135612a8b848260208601612a24565b91505092915050565b60008060008060808587031215612aae57612aad6124de565b5b6000612abc8782880161272b565b9450506020612acd8782880161272b565b9350506040612ade87828801612676565b925050606085013567ffffffffffffffff811115612aff57612afe6124e3565b5b612b0b87828801612a66565b91505092959194509250565b60008060408385031215612b2e57612b2d6124de565b5b6000612b3c8582860161272b565b9250506020612b4d8582860161272b565b9150509250929050565b600067ffffffffffffffff821115612b7257612b71612969565b5b612b7b826125e9565b9050602081019050919050565b6000612b9b612b9684612b57565b6129c9565b905082815260208101848484011115612bb757612bb6612964565b5b612bc2848285612a15565b509392505050565b600082601f830112612bdf57612bde61295f565b5b8135612bef848260208601612b88565b91505092915050565b600060208284031215612c0e57612c0d6124de565b5b600082013567ffffffffffffffff811115612c2c57612c2b6124e3565b5b612c3884828501612bca565b91505092915050565b7f4e487b7100000000000000000000000000000000000000000000000000000000600052602260045260246000fd5b60006002820490506001821680612c8857607f821691505b602082108103612c9b57612c9a612c41565b5b50919050565b6000606082019050612cb660008301866126ea565b612cc360208301856127d3565b612cd060408301846126ea565b949350505050565b7f4e465420616c726561647920736f6c6400000000000000000000000000000000600082015250565b6000612d0e6010836125ae565b9150612d1982612cd8565b602082019050919050565b60006020820190508181036000830152612d3d81612d01565b9050919050565b7f4e4654206973206e6f74206c697374656420666f722073616c65000000000000600082015250565b6000612d7a601a836125ae565b9150612d8582612d44565b602082019050919050565b60006020820190508181036000830152612da981612d6d565b9050919050565b7f496e73756666696369656e742066756e64730000000000000000000000000000600082015250565b6000612de66012836125ae565b9150612df182612db0565b602082019050919050565b60006020820190508181036000830152612e1581612dd9565b9050919050565b7f4e465420616c7265616479206c69737465640000000000000000000000000000600082015250565b6000612e526012836125ae565b9150612e5d82612e1c565b602082019050919050565b60006020820190508181036000830152612e8181612e45565b9050919050565b7f4f6e6c79206f776e65722063616e206c697374204e4654000000000000000000600082015250565b6000612ebe6017836125ae565b9150612ec982612e88565b602082019050919050565b60006020820190508181036000830152612eed81612eb1565b9050919050565b7f5072696365206d7573742062652067726561746572207468616e203000000000600082015250565b6000612f2a601c836125ae565b9150612f3582612ef4565b602082019050919050565b60006020820190508181036000830152612f5981612f1d565b9050919050565b7f496e73756666696369656e742066756e647320666f72206c697374696e67206660008201527f6565000000000000000000000000000000000000000000000000000000000000602082015250565b6000612fbc6022836125ae565b9150612fc782612f60565b604082019050919050565b60006020820190508181036000830152612feb81612faf565b9050919050565b600081905092915050565b6000613008826125a3565b6130128185612ff2565b93506130228185602086016125bf565b80840191505092915050565b600061303a8285612ffd565b91506130468284612ffd565b91508190509392505050565b7f4e487b7100000000000000000000000000000000000000000000000000000000600052601160045260246000fd5b600061308c82612655565b91507fffffffffffffffffffffffffffffffffffffffffffffffffffffffffffffffff82036130be576130bd613052565b5b600182019050919050565b60008190508160005260206000209050919050565b60006020601f8301049050919050565b600082821b905092915050565b60006008830261312b7fffffffffffffffffffffffffffffffffffffffffffffffffffffffffffffffff826130ee565b61313586836130ee565b95508019841693508086168417925050509392505050565b6000819050919050565b600061317261316d61316884612655565b61314d565b612655565b9050919050565b6000819050919050565b61318c83613157565b6131a061319882613179565b8484546130fb565b825550505050565b600090565b6131b56131a8565b6131c0818484613183565b505050565b5b818110156131e4576131d96000826131ad565b6001810190506131c6565b5050565b601f821115613229576131fa816130c9565b613203846130de565b81016020851015613212578190505b61322661321e856130de565b8301826131c5565b50505b505050565b600082821c905092915050565b600061324c6000198460080261322e565b1980831691505092915050565b6000613265838361323b565b9150826002028217905092915050565b61327e826125a3565b67ffffffffffffffff81111561329757613296612969565b5b6132a18254612c70565b6132ac8282856131e8565b600060209050601f8311600181146132df57600084156132cd578287015190505b6132d78582613259565b86555061333f565b601f1984166132ed866130c9565b60005b82811015613315578489015182556001820191506020850194506020810190506132f0565b86831015613332578489015161332e601f89168261323b565b8355505b6001600288020188555050505b505050505050565b600081519050919050565b600082825260208201905092915050565b600061336e82613347565b6133788185613352565b93506133888185602086016125bf565b613391816125e9565b840191505092915050565b60006080820190506133b160008301876126ea565b6133be60208301866126ea565b6133cb60408301856127d3565b81810360608301526133dd8184613363565b905095945050505050565b6000815190506133f781612514565b92915050565b600060208284031215613413576134126124de565b5b6000613421848285016133e8565b91505092915050565b600060408201905061343f60008301856126ea565b61344c60208301846127d3565b9392505050565b7f4e487b7100000000000000000000000000000000000000000000000000000000600052601260045260246000fdfea26469706673582212204809d7266382afb16d8a7ebc0c39c5569791e0bcca4f22ca9d3a4e253ed4fdb864736f6c634300081b0033",
    "linkReferences": {},
    "deployedLinkReferences": {}
}