{
  "_format": "hh-sol-artifact-1",
  "contractName": "Transactions",
  "sourceName": "contracts/Transactions.sol",
  "abi": [
    {
      "anonymous": false,
      "inputs": [
        {
          "indexed": false,
          "internalType": "address",
          "name": "from",
          "type": "address"
        },
        {
          "indexed": false,
          "internalType": "address",
          "name": "reciever",
          "type": "address"
        },
        {
          "indexed": false,
          "internalType": "uint256",
          "name": "amount",
          "type": "uint256"
        },
        {
          "indexed": false,
          "internalType": "uint256",
          "name": "timestamp",
          "type": "uint256"
        },
        {
          "indexed": false,
          "internalType": "string",
          "name": "message",
          "type": "string"
        },
        {
          "indexed": false,
          "internalType": "string",
          "name": "keyword",
          "type": "string"
        }
      ],
      "name": "Transfer",
      "type": "event"
    },
    {
      "inputs": [
        {
          "internalType": "address payable",
          "name": "from",
          "type": "address"
        },
        {
          "internalType": "address payable",
          "name": "receiver",
          "type": "address"
        },
        {
          "internalType": "uint256",
          "name": "amount",
          "type": "uint256"
        },
        {
          "internalType": "string",
          "name": "message",
          "type": "string"
        },
        {
          "internalType": "string",
          "name": "keyword",
          "type": "string"
        }
      ],
      "name": "addToBlockchain",
      "outputs": [],
      "stateMutability": "payable",
      "type": "function"
    },
    {
      "inputs": [],
      "name": "getAllTransactions",
      "outputs": [
        {
          "components": [
            {
              "internalType": "address",
              "name": "sender",
              "type": "address"
            },
            {
              "internalType": "address",
              "name": "reciver",
              "type": "address"
            },
            {
              "internalType": "uint256",
              "name": "amount",
              "type": "uint256"
            },
            {
              "internalType": "uint256",
              "name": "timestamp",
              "type": "uint256"
            },
            {
              "internalType": "string",
              "name": "message",
              "type": "string"
            },
            {
              "internalType": "string",
              "name": "keyword",
              "type": "string"
            }
          ],
          "internalType": "struct Transactions.TransferStruct[]",
          "name": "",
          "type": "tuple[]"
        }
      ],
      "stateMutability": "view",
      "type": "function"
    },
    {
      "inputs": [],
      "name": "getTransactionCount",
      "outputs": [
        {
          "internalType": "uint256",
          "name": "",
          "type": "uint256"
        }
      ],
      "stateMutability": "view",
      "type": "function"
    },
    {
      "inputs": [
        {
          "internalType": "uint256",
          "name": "",
          "type": "uint256"
        }
      ],
      "name": "transactions",
      "outputs": [
        {
          "internalType": "address",
          "name": "sender",
          "type": "address"
        },
        {
          "internalType": "address",
          "name": "reciver",
          "type": "address"
        },
        {
          "internalType": "uint256",
          "name": "amount",
          "type": "uint256"
        },
        {
          "internalType": "uint256",
          "name": "timestamp",
          "type": "uint256"
        },
        {
          "internalType": "string",
          "name": "message",
          "type": "string"
        },
        {
          "internalType": "string",
          "name": "keyword",
          "type": "string"
        }
      ],
      "stateMutability": "view",
      "type": "function"
    }
  ],
  "bytecode": "0x608060405260008055348015601357600080fd5b506110b9806100236000396000f3fe60806040526004361061003f5760003560e01c806327506f53146100445780632cd963a11461006f5780632e7700f01461008b5780639ace38c2146100b6575b600080fd5b34801561005057600080fd5b506100596100f8565b60405161006691906108d7565b60405180910390f35b61008960048036038101906100849190610aac565b61033b565b005b34801561009757600080fd5b506100a06104f6565b6040516100ad9190610b6e565b60405180910390f35b3480156100c257600080fd5b506100dd60048036038101906100d89190610b89565b6104ff565b6040516100ef96959493929190610c0f565b60405180910390f35b60606001805480602002602001604051908101604052809291908181526020016000905b8282101561033257838290600052602060002090600602016040518060c00160405290816000820160009054906101000a900473ffffffffffffffffffffffffffffffffffffffff1673ffffffffffffffffffffffffffffffffffffffff1673ffffffffffffffffffffffffffffffffffffffff1681526020016001820160009054906101000a900473ffffffffffffffffffffffffffffffffffffffff1673ffffffffffffffffffffffffffffffffffffffff1673ffffffffffffffffffffffffffffffffffffffff168152602001600282015481526020016003820154815260200160048201805461020f90610cad565b80601f016020809104026020016040519081016040528092919081815260200182805461023b90610cad565b80156102885780601f1061025d57610100808354040283529160200191610288565b820191906000526020600020905b81548152906001019060200180831161026b57829003601f168201915b505050505081526020016005820180546102a190610cad565b80601f01602080910402602001604051908101604052809291908181526020018280546102cd90610cad565b801561031a5780601f106102ef5761010080835404028352916020019161031a565b820191906000526020600020905b8154815290600101906020018083116102fd57829003601f168201915b5050505050815250508152602001906001019061011c565b50505050905090565b600160008082825461034d9190610d0d565b92505081905550600042905060016040518060c001604052808873ffffffffffffffffffffffffffffffffffffffff1681526020018773ffffffffffffffffffffffffffffffffffffffff16815260200186815260200183815260200185815260200184815250908060018154018082558091505060019003906000526020600020906006020160009091909190915060008201518160000160006101000a81548173ffffffffffffffffffffffffffffffffffffffff021916908373ffffffffffffffffffffffffffffffffffffffff16021790555060208201518160010160006101000a81548173ffffffffffffffffffffffffffffffffffffffff021916908373ffffffffffffffffffffffffffffffffffffffff160217905550604082015181600201556060820151816003015560808201518160040190816104949190610eed565b5060a08201518160050190816104aa9190610eed565b5050507f1e92c3b94e87106bb5e1f3493c1debe5003450085b72f643a2839c3e4dd25eb68686868487876040516104e696959493929190611014565b60405180910390a1505050505050565b60008054905090565b6001818154811061050f57600080fd5b90600052602060002090600602016000915090508060000160009054906101000a900473ffffffffffffffffffffffffffffffffffffffff16908060010160009054906101000a900473ffffffffffffffffffffffffffffffffffffffff169080600201549080600301549080600401805461058a90610cad565b80601f01602080910402602001604051908101604052809291908181526020018280546105b690610cad565b80156106035780601f106105d857610100808354040283529160200191610603565b820191906000526020600020905b8154815290600101906020018083116105e657829003601f168201915b50505050509080600501805461061890610cad565b80601f016020809104026020016040519081016040528092919081815260200182805461064490610cad565b80156106915780601f1061066657610100808354040283529160200191610691565b820191906000526020600020905b81548152906001019060200180831161067457829003601f168201915b5050505050905086565b600081519050919050565b600082825260208201905092915050565b6000819050602082019050919050565b600073ffffffffffffffffffffffffffffffffffffffff82169050919050565b60006106f2826106c7565b9050919050565b610702816106e7565b82525050565b6000819050919050565b61071b81610708565b82525050565b600081519050919050565b600082825260208201905092915050565b60005b8381101561075b578082015181840152602081019050610740565b60008484015250505050565b6000601f19601f8301169050919050565b600061078382610721565b61078d818561072c565b935061079d81856020860161073d565b6107a681610767565b840191505092915050565b600060c0830160008301516107c960008601826106f9565b5060208301516107dc60208601826106f9565b5060408301516107ef6040860182610712565b5060608301516108026060860182610712565b506080830151848203608086015261081a8282610778565b91505060a083015184820360a08601526108348282610778565b9150508091505092915050565b600061084d83836107b1565b905092915050565b6000602082019050919050565b600061086d8261069b565b61087781856106a6565b935083602082028501610889856106b7565b8060005b858110156108c557848403895281516108a68582610841565b94506108b183610855565b925060208a0199505060018101905061088d565b50829750879550505050505092915050565b600060208201905081810360008301526108f18184610862565b905092915050565b6000604051905090565b600080fd5b600080fd5b6000610918826106c7565b9050919050565b6109288161090d565b811461093357600080fd5b50565b6000813590506109458161091f565b92915050565b61095481610708565b811461095f57600080fd5b50565b6000813590506109718161094b565b92915050565b600080fd5b600080fd5b7f4e487b7100000000000000000000000000000000000000000000000000000000600052604160045260246000fd5b6109b982610767565b810181811067ffffffffffffffff821117156109d8576109d7610981565b5b80604052505050565b60006109eb6108f9565b90506109f782826109b0565b919050565b600067ffffffffffffffff821115610a1757610a16610981565b5b610a2082610767565b9050602081019050919050565b82818337600083830152505050565b6000610a4f610a4a846109fc565b6109e1565b905082815260208101848484011115610a6b57610a6a61097c565b5b610a76848285610a2d565b509392505050565b600082601f830112610a9357610a92610977565b5b8135610aa3848260208601610a3c565b91505092915050565b600080600080600060a08688031215610ac857610ac7610903565b5b6000610ad688828901610936565b9550506020610ae788828901610936565b9450506040610af888828901610962565b935050606086013567ffffffffffffffff811115610b1957610b18610908565b5b610b2588828901610a7e565b925050608086013567ffffffffffffffff811115610b4657610b45610908565b5b610b5288828901610a7e565b9150509295509295909350565b610b6881610708565b82525050565b6000602082019050610b836000830184610b5f565b92915050565b600060208284031215610b9f57610b9e610903565b5b6000610bad84828501610962565b91505092915050565b610bbf816106e7565b82525050565b600082825260208201905092915050565b6000610be182610721565b610beb8185610bc5565b9350610bfb81856020860161073d565b610c0481610767565b840191505092915050565b600060c082019050610c246000830189610bb6565b610c316020830188610bb6565b610c3e6040830187610b5f565b610c4b6060830186610b5f565b8181036080830152610c5d8185610bd6565b905081810360a0830152610c718184610bd6565b9050979650505050505050565b7f4e487b7100000000000000000000000000000000000000000000000000000000600052602260045260246000fd5b60006002820490506001821680610cc557607f821691505b602082108103610cd857610cd7610c7e565b5b50919050565b7f4e487b7100000000000000000000000000000000000000000000000000000000600052601160045260246000fd5b6000610d1882610708565b9150610d2383610708565b9250828201905080821115610d3b57610d3a610cde565b5b92915050565b60008190508160005260206000209050919050565b60006020601f8301049050919050565b600082821b905092915050565b600060088302610da37fffffffffffffffffffffffffffffffffffffffffffffffffffffffffffffffff82610d66565b610dad8683610d66565b95508019841693508086168417925050509392505050565b6000819050919050565b6000610dea610de5610de084610708565b610dc5565b610708565b9050919050565b6000819050919050565b610e0483610dcf565b610e18610e1082610df1565b848454610d73565b825550505050565b600090565b610e2d610e20565b610e38818484610dfb565b505050565b5b81811015610e5c57610e51600082610e25565b600181019050610e3e565b5050565b601f821115610ea157610e7281610d41565b610e7b84610d56565b81016020851015610e8a578190505b610e9e610e9685610d56565b830182610e3d565b50505b505050565b600082821c905092915050565b6000610ec460001984600802610ea6565b1980831691505092915050565b6000610edd8383610eb3565b9150826002028217905092915050565b610ef682610721565b67ffffffffffffffff811115610f0f57610f0e610981565b5b610f198254610cad565b610f24828285610e60565b600060209050601f831160018114610f575760008415610f45578287015190505b610f4f8582610ed1565b865550610fb7565b601f198416610f6586610d41565b60005b82811015610f8d57848901518255600182019150602085019450602081019050610f68565b86831015610faa5784890151610fa6601f891682610eb3565b8355505b6001600288020188555050505b505050505050565b6000610fda610fd5610fd0846106c7565b610dc5565b6106c7565b9050919050565b6000610fec82610fbf565b9050919050565b6000610ffe82610fe1565b9050919050565b61100e81610ff3565b82525050565b600060c0820190506110296000830189611005565b6110366020830188611005565b6110436040830187610b5f565b6110506060830186610b5f565b81810360808301526110628185610bd6565b905081810360a08301526110768184610bd6565b905097965050505050505056fea2646970667358221220f5da93d05cfbd0a9588a193c6740c1310319490f1250f73c9b56fe407e3bd6e764736f6c634300081b0033",
  "linkReferences": {},
  "deployedLinkReferences": {}
}